:100000000C9435000C945D000C945D000C945D0024
:100010000C945D000C945D000C945D000C945D00EC
:100020000C945D000C945D000C945D000C945D00DC
:100030000C945D000C945D000C945D000C945D00CC
:100040000C9455020C945D000C9423020C94FD0159
:100050000C945D000C945D000C945D000C945D00AC
:100060000C945D000C945D009F0211241FBECFEF25
:10007000D8E0DEBFCDBF11E0A0E0B1E0EEEEFAE0E7
:1000800002C005900D92AC39B107D9F722E0ACE976
:10009000B1E001C01D92A634B207E1F710E0C5E35C
:1000A000D0E004C02197FE010E943D04C433D10773
:1000B000C9F70E94CC020C9475050C940000CF92F5
:1000C000DF92EF92FF920F931F93CF93DF936C0118
:1000D0007A018B01C0E0D0E0CE15DF0589F0D801B0
:1000E0006D918D01D601ED91FC910190F081E02D93
:1000F000C6010995892B11F47E0102C02196ECCF2F
:10010000C701DF91CF911F910F91FF90EF90DF908A
:10011000CF900895089580E090E00895FC01538DFC
:10012000448D252F30E0842F90E0821B930B5417D1
:1001300010F0CF96089501970895FC01918D828D5E
:10014000981761F0828DDF01A80FB11D5D968C912B
:10015000928D9F5F9F73928F90E008958FEF9FEF36
:100160000895FC01918D828D981731F0828DE80FF2
:10017000F11D858D90E008958FEF9FEF0895FC01AC
:10018000918D228D892F90E0805C9F4F821B910979
:100190008F7399270895FC01848DDF01A80FB11D8D
:1001A000A35ABF4F2C91848D90E001968F739927AD
:1001B000848FA689B7892C93A089B1898C9180649A
:1001C0008C93938D848D981306C00288F389E02D5B
:1001D00080818F7D80830895EF92FF920F931F930C
:1001E000CF93DF93EC0181E0888F9B8D8C8D9813EA
:1001F00005C0E889F989808185FD24C0F62E0B8D24
:1002000010E00F5F1F4F0F731127E02E8C8DE81247
:100210000CC00FB607FCFACFE889F989808185FF09
:10022000F5CFCE010E94CB00F1CF8B8DFE01E80F00
:10023000F11DE35AFF4FF0820B8FEA89FB89808121
:10024000806207C0EE89FF896083E889F98980812F
:100250008064808381E090E0DF91CF911F910F91C6
:10026000FF90EF900895CF93DF93EC01888D882362
:10027000C9F0EA89FB89808185FD05C0A889B98913
:100280008C9186FD0FC00FB607FCF5CF808185FFEE
:10029000F2CFA889B9898C9185FFEDCFCE010E945C
:1002A000CB00E7CFDF91CF910895009769F0FC0173
:1002B00001900020E9F73197AF01481B590BBC01B1
:1002C00085EA91E00C945F0080E090E00895CF9380
:1002D000DF930E945501EC018EE191E00E945501EF
:1002E0008C0F9D1FDF91CF91089581E291E00E94D4
:1002F000670181E090E008950E9470058F929F92BF
:10030000AF92BF92CF92DF92EF92FF92CF93DF93A3
:10031000CDB7DEB7A1970FB6F894DEBF0FBECDBF45
:100320007C018CE391E00E945501F701C280D380EB
:100330000D2C000CEE08FF08F7FE2BC0E091A50184
:10034000F091A6010190F081E02D6DE285EA91E047
:10035000099522273327A9012C193D094E095F0968
:1003600019A2CE0181967C019AE0892E912CA12CB4
:10037000B12CCA01B901A50194010E940704605D76
:10038000F70162937F01211531054105510589F778
:100390001AC0A701960119A2CE0181967C018AE0BC
:1003A000882E912CA12CB12CCA01B901A501940170
:1003B0000E940704605DF70162937F0121153105FA
:1003C0004105510589F7C7010E9455018EE191E071
:1003D0000E94550181E090E0A1960FB6F894DEBF2F
:1003E0000FBECDBFDF91CF91FF90EF90DF90CF9008
:1003F000BF90AF909F908F9008951F920F920FB66D
:100400000F9211242F933F934F935F936F937F939A
:100410008F939F93AF93BF93EF93FF9385EA91E000
:100420000E94CB00FF91EF91BF91AF919F918F916F
:100430007F916F915F914F913F912F910F900FBEE0
:100440000F901F9018951F920F920FB60F921124C4
:100450002F938F939F93EF93FF93E091B501F091CA
:10046000B6018081E091BB01F091BC0182FD12C018
:1004700090818091BE018F5F8F732091BF018217A1
:1004800051F0E091BE01F0E0EB55FE4F958F809367
:10049000BE0101C08081FF91EF919F918F912F91BB
:1004A0000F900FBE0F901F9018951F920F920FB6CE
:1004B0000F9211242F933F938F939F93AF93BF93EA
:1004C0008091A1019091A201A091A301B091A401FA
:1004D0003091A00123E0230F2D3720F40196A11DB8
:1004E000B11D05C026E8230F0296A11DB11D209362
:1004F000A0018093A1019093A201A093A301B093C6
:10050000A40180919C0190919D01A0919E01B091C8
:100510009F010196A11DB11D80939C0190939D01A7
:10052000A0939E01B0939F01BF91AF919F918F9136
:100530003F912F910F900FBE0F901F901895E5EAF5
:10054000F1E01382128288EE93E0A0E0B0E08483B1
:100550009583A683B78380E191E09183808385ECC6
:1005600090E09587848784EC90E09787868780EC7D
:1005700090E0918B808B81EC90E0938B828B82EC6E
:1005800090E0958B848B86EC90E0978B868B118E18
:10059000128E138E148E0895CF93DF93CDB7DEB7EE
:1005A000C455D1090FB6F894DEBF0FBECDBF789405
:1005B00084B5826084BD84B5816084BD85B5826068
:1005C00085BD85B5816085BD80916E008160809319
:1005D0006E00109281008091810082608093810082
:1005E0008091810081608093810080918000816092
:1005F000809380008091B10084608093B1008091ED
:10060000B00081608093B00080917A008460809314
:100610007A0080917A00826080937A0080917A00DB
:10062000816080937A0080917A00806880937A005C
:100630001092C100E091B501F091B60182E0808393
:10064000E091B101F091B2011082E091B301F0911B
:10065000B4018FEC80831092BD01E091B901F0915B
:10066000BA0186E08083E091B701F091B801808102
:1006700080618083E091B701F091B801808188604A
:100680008083E091B701F091B80180818068808318
:10069000E091B701F091B80180818F7D80838CE477
:1006A00091E00E94670189E691E00E94670184E081
:1006B00090E00E9443042C010AE011E0DC01119655
:1006C0001C930E9381E090E013969C938E93129767
:1006D00084E090E00E9443043C01FC01118300830C
:1006E00082E090E09383828384E090E00E94430460
:1006F0004C01DC0111961C930E9383E090E013965D
:100700009C938E93129784E090E00E9443045C01D6
:10071000FC011183008384E090E0938382830E9434
:1007200043046C01DC0111961C930E9385E090E06C
:1007300013969C938E93129784E090E00E9443045A
:100740007C01FC011183008386E090E09383828327
:1007500084E090E00E9443041C01DC0111961C938C
:100760000E9387E090E013969C938E93129780E807
:1007700091E00E9467015E824D8278866F829A8640
:100780008986BC86AB86DE86CD86F88AEF863A8A75
:10079000298A00E010E097E0E92EF12CF80132966A
:1007A000EE0FFF1F81E090E08C0F9D1FE80FF91FF7
:1007B00080819181DC01ED91FC910190F081E02D2F
:1007C0000995892B31F0C8010196B7010E94F30306
:1007D0008C01BFEFE3ECF9E0B150E040F040E1F70D
:1007E00000C00000DBCF97FB072E16F4009407D063
:1007F00077FD09D00E94290407FC05D03EF49095AE
:1008000081959F4F0895709561957F4F0895A1E25E
:100810001A2EAA1BBB1BFD010DC0AA1FBB1FEE1F7A
:10082000FF1FA217B307E407F50720F0A21BB30BC5
:10083000E40BF50B661F771F881F991F1A9469F741
:1008400060957095809590959B01AC01BD01CF019D
:100850000895AA1BBB1B51E107C0AA1FBB1FA61707
:10086000B70710F0A61BB70B881F991F5A95A9F759
:1008700080959095BC01CD010895EE0FFF1F059066
:10088000F491E02D0994CF93DF938230910510F419
:1008900082E090E0E0914402F091450220E030E0F7
:1008A000C0E0D0E0309711F14081518148175907DD
:1008B000C0F04817590761F482819381209719F09D
:1008C0009B838A832BC0909345028093440226C069
:1008D0002115310519F04217530718F49A01BE018A
:1008E000DF01EF010280F381E02DDCCF211531051E
:1008F00009F1281B390B2430310590F412968D91A3
:100900009C9113976115710521F0FB0193838283FC
:1009100004C09093450280934402FD01329644C086
:10092000FD01E20FF31F81939193225031092D9322
:100930003C933AC02091420230914302232B41F470
:10094000209102013091030130934302209342022F
:1009500020910001309101012115310541F42DB79D
:100960003EB74091040150910501241B350BE091E5
:100970004202F0914302E217F307A0F42E1B3F0B53
:100980002817390778F0AC014E5F5F4F2417350701
:1009900048F04E0F5F1F50934302409342028193F1
:1009A000919302C0E0E0F0E0CF01DF91CF91089594
:1009B0000F931F93CF93DF93009709F48CC0FC0132
:1009C0003297138212820091440210914502011560
:1009D000110581F420813181820F931F2091420201
:1009E000309143022817390779F5F0934302E093D9
:1009F000420271C0D80140E050E0AE17BF0750F48A
:100A000012962D913C911397AD012115310509F1F5
:100A1000D901F3CF9D01DA01338322836081718193
:100A2000860F971F8217930769F4EC01288139819B
:100A3000260F371F2E5F3F4F318320838A819B8192
:100A400093838283452B29F4F0934502E09344027B
:100A500042C01396FC93EE931297ED014991599180
:100A60009E01240F351FE217F30771F480819181F5
:100A7000840F951F029611969C938E938281938189
:100A800013969C938E931297E0E0F0E0D8011296B3
:100A90008D919C911397009719F0F8018C01F6CF76
:100AA0008D919C9198012E5F3F4F820F931F209153
:100AB0004202309143022817390769F4309729F42C
:100AC000109245021092440202C0138212821093C7
:100AD000430200934202DF91CF911F910F9108953D
:0E0AE00081E090E0F8940C947505F894FFCF37
:100AEE00000046028000000000007E0100000000B1
:100AFE00EC005F008E003301BF009D00B1000D0AB7
:100B0E000072756E2829206E6F7420696D706C6589
:100B1E006D656E7465642079657421005461736B24
:100B2E002065786563757465643A2000437265616B
:100B3E0074696E67205461736B4D616E6167657287
:100B4E00206F626A6563742E004372656174696E0C
:100B5E0067205461736B206F626A656374732E0035
:100B6E00416464696E67205461736B7320746F20E7
:0C0B7E005461736B4D616E61676572001D
:107E0000112484B714BE81FFF0D085E080938100F7
:107E100082E08093C00088E18093C10086E0809377
:107E2000C20080E18093C4008EE0C9D0259A86E02C
:107E300020E33CEF91E0309385002093840096BBD3
:107E4000B09BFECF1D9AA8958150A9F7CC24DD24C4
:107E500088248394B5E0AB2EA1E19A2EF3E0BF2EE7
:107E6000A2D0813461F49FD0082FAFD0023811F036
:107E7000013811F484E001C083E08DD089C08234E0
:107E800011F484E103C0853419F485E0A6D080C0E4
:107E9000853579F488D0E82EFF2485D0082F10E0AE
:107EA000102F00270E291F29000F111F8ED06801E7
:107EB0006FC0863521F484E090D080E0DECF843638
:107EC00009F040C070D06FD0082F6DD080E0C81688
:107ED00080E7D80618F4F601B7BEE895C0E0D1E017
:107EE00062D089930C17E1F7F0E0CF16F0E7DF06D8
:107EF00018F0F601B7BEE89568D007B600FCFDCFD4
:107F0000A601A0E0B1E02C9130E011968C91119780
:107F100090E0982F8827822B932B1296FA010C0160
:107F200087BEE89511244E5F5F4FF1E0A038BF0790
:107F300051F7F601A7BEE89507B600FCFDCF97BE46
:107F4000E89526C08437B1F42ED02DD0F82E2BD052
:107F50003CD0F601EF2C8F010F5F1F4F84911BD097
:107F6000EA94F801C1F70894C11CD11CFA94CF0C13
:107F7000D11C0EC0853739F428D08EE10CD085E9AC
:107F80000AD08FE07ACF813511F488E018D01DD067
:107F900080E101D065CF982F8091C00085FFFCCF94
:107FA0009093C60008958091C00087FFFCCF809118
:107FB000C00084FD01C0A8958091C6000895E0E648
:107FC000F0E098E1908380830895EDDF803219F02E
:107FD00088E0F5DFFFCF84E1DECF1F93182FE3DFCA
:107FE0001150E9F7F2DF1F91089580E0E8DFEE27F6
:047FF000FF270994CA
:027FFE00040479
:0400000300007E007B
:00000001FF