:100000000C9435000C945D000C945D000C945D0024
:100010000C945D000C945D000C945D000C945D00EC
:100020000C945D000C945D000C945D000C945D00DC
:100030000C945D000C945D000C945D000C945D00CC
:100040000C9459020C945D000C9427020C9401024C
:100050000C945D000C945D000C945D000C945D00AC
:100060000C945D000C945D00A30211241FBECFEF21
:10007000D8E0DEBFCDBF11E0A0E0B1E0ECE0FBE0F6
:1000800002C005900D92A83BB107D9F722E0A8EB7A
:10009000B1E001C01D92A236B207E1F710E0C5E35E
:1000A000D0E004C02197FE010E944C04C433D10764
:1000B000C9F70E94D0020C9484050C940000CF92E2
:1000C000DF92EF92FF920F931F93CF93DF936C0118
:1000D0007A018B01C0E0D0E0CE15DF0589F0D801B0
:1000E0006D918D01D601ED91FC910190F081E02D93
:1000F000C6010995892B11F47E0102C02196ECCF2F
:10010000C701DF91CF911F910F91FF90EF90DF908A
:10011000CF900895089580E090E00895FC01538DFC
:10012000448D252F30E0842F90E0821B930B5417D1
:1001300010F0CF96089501970895FC01918D828D5E
:10014000981761F0828DDF01A80FB11D5D968C912B
:10015000928D9F5F9F73928F90E008958FEF9FEF36
:100160000895FC01918D828D981731F0828DE80FF2
:10017000F11D858D90E008958FEF9FEF0895FC01AC
:10018000918D228D892F90E0805C9F4F821B910979
:100190008F7399270895FC01848DDF01A80FB11D8D
:1001A000A35ABF4F2C91848D90E001968F739927AD
:1001B000848FA689B7892C93A089B1898C9180649A
:1001C0008C93938D848D981306C00288F389E02D5B
:1001D00080818F7D80830895EF92FF920F931F930C
:1001E000CF93DF93EC0181E0888F9B8D8C8D9813EA
:1001F00005C0E889F989808185FD24C0F62E0B8D24
:1002000010E00F5F1F4F0F731127E02E8C8DE81247
:100210000CC00FB607FCFACFE889F989808185FF09
:10022000F5CFCE010E94CB00F1CF8B8DFE01E80F00
:10023000F11DE35AFF4FF0820B8FEA89FB89808121
:10024000806207C0EE89FF896083E889F98980812F
:100250008064808381E090E0DF91CF911F910F91C6
:10026000FF90EF900895CF93DF93EC01888D882362
:10027000C9F0EA89FB89808185FD05C0A889B98913
:100280008C9186FD0FC00FB607FCF5CF808185FFEE
:10029000F2CFA889B9898C9185FFEDCFCE010E945C
:1002A000CB00E7CFDF91CF910895009769F0FC0173
:1002B00001900020E9F73197AF01481B590BBC01B1
:1002C00081EC91E00C945F0080E090E00895CF9382
:1002D000DF930E945501EC018EE191E00E945501EF
:1002E0008C0F9D1FDF91CF91089581E291E00C94D6
:1002F00067018FE291E00C9467018F929F92AF9219
:10030000BF92CF92DF92EF92FF920F931F93CF9302
:10031000DF93CDB7DEB7A1970FB6F894DEBF0FBE5F
:10032000CDBF6C01990FEE08FF08F7FE31C0E091D8
:10033000C101F091C2010190F081E02D6DE281ECEC
:1003400091E009958C0122273327A9012C193D0939
:100350004E095F0919A2CE0181967C019AE0892E8F
:10036000912CA12CB12CCA01B901A50194010E94C4
:100370001604605DF70162937F0121153105410587
:10038000510589F7CF010E945501080F191F1EC0A2
:10039000A701960119A28E010F5D1F4F8AE0C82E9A
:1003A000D12CE12CF12CCA01B901A70196010E94C0
:1003B0001604605DF80162938F0121153105410536
:1003C000510589F7CF010E9455018C018EE191E022
:1003D0000E945501800F911FA1960FB6F894DEBFC1
:1003E0000FBECDBFDF91CF911F910F91FF90EF9086
:1003F000DF90CF90BF90AF909F908F9008950E9414
:100400007F051F920F920FB60F9211242F933F93E7
:100410004F935F936F937F938F939F93AF93BF930C
:10042000EF93FF9381EC91E00E94CB00FF91EF915D
:10043000BF91AF919F918F917F916F915F914F91FC
:100440003F912F910F900FBE0F901F9018951F9204
:100450000F920FB60F9211242F938F939F93EF93C8
:10046000FF93E091D101F091D2018081E091D70119
:10047000F091D80182FD12C090818091DA018F5FE6
:100480008F732091DB01821751F0E091DA01F0E0E7
:10049000EF53FE4F958F8093DA0101C08081FF9169
:1004A000EF919F918F912F910F900FBE0F901F9002
:1004B00018951F920F920FB60F9211242F933F930E
:1004C0008F939F93AF93BF938091BD019091BE0195
:1004D000A091BF01B091C0013091BC0123E0230F76
:1004E0002D3720F40196A11DB11D05C026E8230F6C
:1004F0000296A11DB11D2093BC018093BD01909374
:10050000BE01A093BF01B093C0018091B80190914A
:10051000B901A091BA01B091BB010196A11DB11D15
:100520008093B8019093B901A093BA01B093BB0135
:10053000BF91AF919F918F913F912F910F900FBEDF
:100540000F901F901895E1ECF1E01382128288EE73
:1005500093E0A0E0B0E084839583A683B78380E135
:1005600091E09183808385EC90E09587848784EC8B
:1005700090E09787868780EC90E0918B808B81EC70
:1005800090E0938B828B82EC90E0958B848B86EC51
:1005900090E0978B868B118E128E138E148E089599
:1005A000CF93DF93CDB7DEB7C455D1090FB6F8941A
:1005B000DEBF0FBECDBF789484B5826084BD84B5A4
:1005C000816084BD85B5826085BD85B5816085BD4E
:1005D00080916E00816080936E0010928100809106
:1005E000810082608093810080918100816080938E
:1005F0008100809180008160809380008091B100B3
:1006000084608093B1008091B00081608093B000DD
:1006100080917A00846080937A0080917A00826071
:1006200080937A0080917A00816080937A00809133
:100630007A00806880937A001092C100E091D10125
:10064000F091D20182E08083E091CD01F091CE0162
:100650001082E091CF01F091D0018FEC8083109255
:10066000D901E091D501F091D60186E08083E09137
:10067000D301F091D401808180618083E091D30126
:10068000F091D401808188608083E091D301F09162
:10069000D401808180688083E091D301F091D401FE
:1006A00080818F7D80838AE491E00E9467012FEF33
:1006B00083ED90E3215080409040E1F700C00000BE
:1006C00087E691E00E94670182E090E00E94520478
:1006D0003C019AE0292E91E0392ED3012D923C92D3
:1006E00082E090E00E9452044C01FC0131822082A1
:1006F00082E090E00E9452045C01DC012D923C9269
:1007000082E090E00E9452046C01FC013182208260
:1007100082E090E00E9452047C01DC012D923C9228
:1007200082E090E00E9452048C01FC013182208220
:1007300082E090E00E9452042C01DC012D923C9258
:10074000BFEFE3EDF0E3B150E040F040E1F700C06F
:1007500000008EE791E00E9467017E826D8298869C
:100760008F82BA86A986DC86CB86FE86ED86188BBC
:100770000F875A8A498A2FEF83ED90E321508040FA
:100780009040E1F700C0000000E010E08AE991E04D
:100790000E945501C8010E947D018BEA91E00E94F0
:1007A000550187E090E00E947D01F8013296EE0F3E
:1007B000FF1FA1E0B0E0AC0FBD1FEA0FFB1F80815F
:1007C0009181DC01ED91FC910190F081E02D099582
:1007D000BFEFE3ECF9E0B150E040F040E1F700C0DA
:1007E0000000C801019667E070E00E9402048C01DD
:1007F0002FEF89E698E1215080409040E1F700C05A
:100800000000C4CF97FB072E16F4009407D077FDA5
:1008100009D00E94380407FC05D03EF490958195DC
:100820009F4F0895709561957F4F0895A1E21A2E0C
:10083000AA1BBB1BFD010DC0AA1FBB1FEE1FFF1F84
:10084000A217B307E407F50720F0A21BB30BE40BD4
:10085000F50B661F771F881F991F1A9469F760951B
:100860007095809590959B01AC01BD01CF010895D5
:10087000AA1BBB1B51E107C0AA1FBB1FA617B707C6
:1008800010F0A61BB70B881F991F5A95A9F78095E2
:100890009095BC01CD010895EE0FFF1F0590F491D6
:1008A000E02D0994CF93DF938230910510F482E01C
:1008B00090E0E0916002F091610220E030E0C0E061
:1008C000D0E0309711F14081518148175907C0F0AD
:1008D0004817590761F482819381209719F09B830F
:1008E0008A832BC0909361028093600226C02115F9
:1008F000310519F04217530718F49A01BE01DF01C0
:10090000EF010280F381E02DDCCF2115310509F1E3
:10091000281B390B2430310590F412968D919C914F
:1009200013976115710521F0FB019383828304C045
:100930009093610280936002FD01329644C0FD01F4
:10094000E20FF31F81939193225031092D933C9331
:100950003AC020915E0230915F02232B41F4209136
:1009600002013091030130935F0220935E022091D7
:100970000001309101012115310541F42DB73EB739
:100980004091040150910501241B350BE0915E025A
:10099000F0915F02E217F307A0F42E1B3F0B28171C
:1009A000390778F0AC014E5F5F4F2417350748F0E8
:1009B0004E0F5F1F50935F0240935E0281939193AD
:1009C00002C0E0E0F0E0CF01DF91CF9108950F93F6
:1009D0001F93CF93DF93009709F48CC0FC013297EB
:1009E00013821282009160021091610201151105BB
:1009F00081F420813181820F931F20915E0230911A
:100A00005F022817390779F5F0935F02E0935E02E1
:100A100071C0D80140E050E0AE17BF0750F4129605
:100A20002D913C911397AD012115310509F1D901A3
:100A3000F3CF9D01DA013383228360817181860FB8
:100A4000971F8217930769F4EC0128813981260FDB
:100A5000371F2E5F3F4F318320838A819B81938391
:100A60008283452B29F4F0936102E093600242C037
:100A70001396FC93EE931297ED01499159919E01C3
:100A8000240F351FE217F30771F480819181840FE1
:100A9000951F029611969C938E9382819381139653
:100AA0009C938E931297E0E0F0E0D80112968D911E
:100AB0009C911397009719F0F8018C01F6CF8D9156
:100AC0009C9198012E5F3F4F820F931F20915E02F1
:100AD00030915F022817390769F4309729F4109292
:100AE00061021092600202C01382128210935F02B0
:100AF00000935E02DF91CF911F910F91089581E0E5
:0C0B000090E0F8940C948405F894FFCF6A
:100B0C00000062028000000000007501000000007F
:100B1C00EC005F008E003301BF009D00B1000D0A98
:100B2C00005461736B20657865637574656400723D
:100B3C00756E2829206E6F7420696D706C656D65FB
:100B4C006E74656420796574210043726561746903
:100B5C006E67205461736B4D616E61676572206FB7
:100B6C00626A6563742E004372656174696E6720F6
:100B7C005461736B206F626A656374732E004164F9
:100B8C0064696E67205461736B7320746F205461B9
:100B9C00736B4D616E616765720063757272656E21
:100BAC00745461736B6E723A2009007461736B43F9
:080BBC006F756E743A20090008
:00000001FF
