:100000000C9435000C945D000C945D000C945D0024
:100010000C945D000C943B020C945D000C945D000C
:100020000C945D000C94D8020C945D000C945D005F
:100030000C945D000C945D000C945D000C945D00CC
:100040000C945D000C945D000C9409020C94E30187
:100050000C945D000C945D000C945D000C945D00AC
:100060000C945D000C945D00F50211241FBECFEFCF
:10007000D8E0DEBFCDBF11E0A0E0B1E0EEE8FAE0ED
:1000800002C005900D92A433B107D9F721E0A4E393
:10009000B1E001C01D92A53DB207E1F710E0C5E354
:1000A000D0E004C02197FE010E943A05C433D10775
:1000B000C9F70E9422030C9445050C940000E091BE
:1000C0003801F09139010190F081E02D682F88E32B
:1000D00091E00994CF92DF92EF92FF920F931F93DA
:1000E000CF93DF936C017A018B01C0E0D0E0CE1595
:1000F000DF0589F0D8016D918D01D601ED91FC915C
:100100000190F081E02DC6010995892B11F47E0143
:1001100002C02196ECCFC701DF91CF911F910F91C3
:10012000FF90EF90DF90CF900895089580E090E0E9
:100130000895FC01538D448D252F30E0842F90E0ED
:10014000821B930B541710F0CF96089501970895D2
:10015000FC01918D828D981761F0828DDF01A80FCF
:10016000B11D5D968C91928D9F5F9F73928F90E0F1
:1001700008958FEF9FEF0895FC01918D828D981760
:1001800031F0828DE80FF11D858D90E008958FEF9D
:100190009FEF0895FC01918D228D892F90E0805C66
:1001A0009F4F821B91098F7399270895FC01848DBD
:1001B000DF01A80FB11DA35ABF4F2C91848D90E091
:1001C00001968F739927848FA689B7892C93A0896C
:1001D000B1898C9180648C93938D848D981306C023
:1001E0000288F389E02D80818F7D80830895EF92CE
:1001F000FF920F931F93CF93DF93EC0181E0888FE1
:100200009B8D8C8D981305C0E889F989808185FDC7
:1002100024C0F62E0B8D10E00F5F1F4F0F731127B8
:10022000E02E8C8DE8120CC00FB607FCFACFE889DF
:10023000F989808185FFF5CFCE010E94D600F1CFEC
:100240008B8DFE01E80FF11DE35AFF4FF0820B8FFB
:10025000EA89FB898081806207C0EE89FF8960831B
:10026000E889F98980818064808381E090E0DF9172
:10027000CF911F910F91FF90EF900895CF93DF934F
:10028000EC01888D8823C9F0EA89FB89808185FD8E
:1002900005C0A889B9898C9186FD0FC00FB607FCEF
:1002A000F5CF808185FFF2CFA889B9898C9185FF30
:1002B000EDCFCE010E94D600E7CFDF91CF91089518
:1002C000009769F0FC0101900020E9F73197AF0138
:1002D000481B590BBC0188E391E00C946A0080E054
:1002E00090E008958F929F92AF92BF920F931F93C9
:1002F000CF93DF93CDB7DEB7A1970FB6F894DEBFEB
:100300000FBECDBF19A2423008F44AE08E010F5D46
:100310001F4F842E912CA12CB12CA50194010E9479
:100320001805E62FB901CA0101501109EA3014F489
:10033000E05D01C0E95CD801EC93232B242B252B35
:1003400061F7C8010E946001A1960FB6F894DEBF64
:100350000FBECDBFDF91CF911F910F91BF90AF9096
:100360009F908F900895CF92DF92EF92FF92CF935C
:10037000DF936C01990FEE08FF08F7FE17C08DE2BE
:100380000E945F00EC0166277727CB016C197D097D
:100390008E099F094AE00E9472018C0F9D1FDF9118
:1003A000CF91FF90EF90DF90CF9008954AE0C70182
:1003B000B601DF91CF91FF90EF90DF90CF900C943A
:1003C00072010E9440051F920F920FB60F921124E6
:1003D0002F933F934F935F936F937F938F939F934D
:1003E000AF93BF93EF93FF9388E391E00E94D60011
:1003F000FF91EF91BF91AF919F918F917F916F91FD
:100400005F914F913F912F910F900FBE0F901F90D2
:1004100018951F920F920FB60F9211242F938F935E
:100420009F93EF93FF93E0914801F0914901808100
:10043000E0914E01F0914F0182FD12C090818091B8
:1004400051018F5F8F7320915201821751F0E0911B
:100450005101F0E0E85CFE4F958F8093510101C09F
:100460008081FF91EF919F918F912F910F900FBEFF
:100470000F901F9018951F920F920FB60F92112494
:100480002F933F934F935F936F937F938F939F939C
:10049000AF93BF93EF93FF93609136017091370153
:1004A00080E090E00E948A0420E030E04AE753E4D4
:1004B0000E94750320E030E04AEF53E40E94E2031B
:1004C0000E94540461307105C1F084F4672B09F077
:1004D00047C080913501880F8093350180913401A8
:1004E0008F5F8093340180E090E014C0623071052A
:1004F000A1F06330710519F133C080913501880F87
:10050000909134019F5F9093340181608093350115
:1005100081E090E00E94B30125C0809134018111F7
:1005200005C082E191E00E9460011CC087E191E07A
:100530000E946001809135010E945F0013C080918C
:100540003401811105C08CE191E00E94600108C076
:1005500082E291E00E946001809135010E945F007B
:100560001092340187E291E00E94600160913601AF
:100570007091370180E090E04AE00E94720181E3CF
:1005800091E00E9460011092370110923601FF91B4
:10059000EF91BF91AF919F918F917F916F915F91FB
:1005A0004F913F912F910F900FBE0F901F90189574
:1005B0001F920F920FB60F9211242F938F939F9338
:1005C0008091360190913701803325E7920728F416
:1005D000019690933701809336019F918F912F91CF
:1005E0000F900FBE0F901F901895E8E3F1E0138273
:1005F000128288EE93E0A0E0B0E084839583A68326
:10060000B78384E091E09183808385EC90E09587C7
:10061000848784EC90E09787868780EC90E0918BCC
:10062000808B81EC90E0938B828B82EC90E0958BB9
:10063000848B86EC90E0978B868B118E128E138EB6
:10064000148E0895E0914801F091490182E0808381
:10065000E0914401F09145011082E0914601F09152
:1006600047018FEC808310925001E0914C01F09192
:100670004D0186E08083E0914A01F0914B01808139
:1006800080618083E0914A01F0914B018081886014
:100690008083E0914A01F0914B01808180688083E2
:1006A000E0914A01F0914B0180818F7D80838091A0
:1006B000B00083628093B0008091B1008A60809323
:1006C000B1008AE38093B300539A81E08093700075
:1006D00078948091680084608093680080916D00B8
:1006E000806180936D007894FFCF5058BB27AA2774
:1006F0000E948D030C94DE040E94D00438F00E9406
:10070000D70420F039F49F3F19F426F40C94CD045B
:100710000EF4E095E7FB0C94C704E92F0E94EF0468
:1007200058F3BA17620773078407950720F079F426
:10073000A6F50C9411050EF4E0950B2EBA2FA02D02
:100740000B01B90190010C01CA01A0011124FF277E
:10075000591B99F0593F50F4503E68F11A16F04079
:10076000A22F232F342F4427585FF3CF4695379578
:100770002795A795F0405395C9F77EF41F16BA0B3D
:10078000620B730B840BBAF09150A1F0FF0FBB1FEB
:10079000661F771F881FC2F70EC0BA0F621F731F34
:1007A000841F48F4879577956795B795F7959E3F91
:1007B00008F0B0CF9395880F08F09927EE0F979522
:1007C000879508950E94F6030C94DE040E94D704D6
:1007D00058F00E94D00440F029F45F3F29F00C94B7
:1007E000C70451110C9412050C94CD040E94EF041F
:1007F00068F39923B1F3552391F3951B550BBB2750
:10080000AA2762177307840738F09F5F5F4F220F94
:10081000331F441FAA1FA9F335D00E2E3AF0E0E88B
:1008200032D091505040E695001CCAF72BD0FE2FD5
:1008300029D0660F771F881FBB1F26173707480769
:10084000AB07B0E809F0BB0B802DBF01FF27935821
:100850005F4F3AF09E3F510578F00C94C7040C941A
:1008600012055F3FE4F3983ED4F38695779567953C
:10087000B795F7959F5FC9F7880F911D9695879556
:1008800097F90895E1E0660F771F881FBB1F621775
:1008900073078407BA0720F0621B730B840BBA0B33
:1008A000EE1F88F7E09508950E945B046894B111EB
:1008B0000C94120508950E94F70488F09F5798F051
:1008C000B92F9927B751B0F0E1F0660F771F881F55
:1008D000991F1AF0BA95C9F714C0B13091F00E946F
:1008E0001105B1E008950C941105672F782F882722
:1008F000B85F39F0B93FCCF3869577956795B39596
:10090000D9F73EF490958095709561957F4F8F4F04
:100910009F4F0895E89409C097FB3EF49095809509
:10092000709561957F4F8F4F9F4F9923A9F0F92FB5
:1009300096E9BB279395F695879577956795B79533
:10094000F111F8CFFAF4BB0F11F460FF1BC06F5F19
:100950007F4F8F4F9F4F16C0882311F096E911C02B
:10096000772321F09EE8872F762F05C0662371F04C
:1009700096E8862F70E060E02AF09A95660F771F60
:10098000881FDAF7880F9695879597F9089597F954
:100990009F6780E870E060E008959FEF80EC089525
:1009A00000240A941616170618060906089500244E
:1009B0000A9412161306140605060895092E0394C8
:1009C000000C11F4882352F0BB0F40F4BF2B11F43C
:1009D00060FF04C06F5F7F4F8F4F9F4F089557FD9B
:1009E0009058440F551F59F05F3F71F04795880F9D
:1009F00097FB991F61F09F3F79F087950895121634
:100A000013061406551FF2CF4695F1DF08C01616DF
:100A100017061806991FF1CF869571056105089490
:100A20000895E894BB2766277727CB0197F90895A7
:100A3000A1E21A2EAA1BBB1BFD010DC0AA1FBB1FE2
:100A4000EE1FFF1FA217B307E407F50720F0A21B54
:100A5000B30BE40BF50B661F771F881F991F1A94C1
:100A600069F760957095809590959B01AC01BD01EB
:100A7000CF010895EE0FFF1F0590F491E02D09942A
:0E0A800081E090E0F8940C944505F894FFCFC7
:100A8E0000000000F7006A0099003E01CA00A800AD
:100A9E00BC0053746F7000503A3020005374617272
:100AAE007400503A312000200954696D65723A2065
:040ABE00000D0A001D
:00000001FF
