:100000000C9435000C945D000C945D000C945D0024
:100010000C945D000C943B020C945D000C945D000C
:100020000C945D000C94D2020C945D000C945D0065
:100030000C945D000C945D000C945D000C945D00CC
:100040000C945D000C945D000C9409020C94E30187
:100050000C945D000C945D000C945D000C945D00AC
:100060000C945D000C945D00EF0211241FBECFEFD5
:10007000D8E0DEBFCDBF11E0A0E0B1E0E8E8FAE0F3
:1000800002C005900D92A832B107D9F721E0A8E28D
:10009000B1E001C01D92A93CB207E1F710E0C5E351
:1000A000D0E004C02197FE010E943705C433D10778
:1000B000C9F70E941C030C9442050C940000E091C7
:1000C0002C01F0912D010190F081E02D682F8CE240
:1000D00091E00994CF92DF92EF92FF920F931F93DA
:1000E000CF93DF936C017A018B01C0E0D0E0CE1595
:1000F000DF0589F0D8016D918D01D601ED91FC915C
:100100000190F081E02DC6010995892B11F47E0143
:1001100002C02196ECCFC701DF91CF911F910F91C3
:10012000FF90EF90DF90CF900895089580E090E0E9
:100130000895FC01538D448D252F30E0842F90E0ED
:10014000821B930B541710F0CF96089501970895D2
:10015000FC01918D828D981761F0828DDF01A80FCF
:10016000B11D5D968C91928D9F5F9F73928F90E0F1
:1001700008958FEF9FEF0895FC01918D828D981760
:1001800031F0828DE80FF11D858D90E008958FEF9D
:100190009FEF0895FC01918D228D892F90E0805C66
:1001A0009F4F821B91098F7399270895FC01848DBD
:1001B000DF01A80FB11DA35ABF4F2C91848D90E091
:1001C00001968F739927848FA689B7892C93A0896C
:1001D000B1898C9180648C93938D848D981306C023
:1001E0000288F389E02D80818F7D80830895EF92CE
:1001F000FF920F931F93CF93DF93EC0181E0888FE1
:100200009B8D8C8D981305C0E889F989808185FDC7
:1002100024C0F62E0B8D10E00F5F1F4F0F731127B8
:10022000E02E8C8DE8120CC00FB607FCFACFE889DF
:10023000F989808185FFF5CFCE010E94D600F1CFEC
:100240008B8DFE01E80FF11DE35AFF4FF0820B8FFB
:10025000EA89FB898081806207C0EE89FF8960831B
:10026000E889F98980818064808381E090E0DF9172
:10027000CF911F910F91FF90EF900895CF93DF934F
:10028000EC01888D8823C9F0EA89FB89808185FD8E
:1002900005C0A889B9898C9186FD0FC00FB607FCEF
:1002A000F5CF808185FFF2CFA889B9898C9185FF30
:1002B000EDCFCE010E94D600E7CFDF91CF91089518
:1002C000009769F0FC0101900020E9F73197AF0138
:1002D000481B590BBC018CE291E00C946A0080E051
:1002E00090E008958F929F92AF92BF920F931F93C9
:1002F000CF93DF93CDB7DEB7A1970FB6F894DEBFEB
:100300000FBECDBF19A2423008F44AE08E010F5D46
:100310001F4F842E912CA12CB12CA50194010E9479
:100320001505E62FB901CA0101501109EA3014F48C
:10033000E05D01C0E95CD801EC93232B242B252B35
:1003400061F7C8010E946001A1960FB6F894DEBF64
:100350000FBECDBFDF91CF911F910F91BF90AF9096
:100360009F908F900895CF92DF92EF92FF92CF935C
:10037000DF936C01990FEE08FF08F7FE17C08DE2BE
:100380000E945F00EC0166277727CB016C197D097D
:100390008E099F094AE00E9472018C0F9D1FDF9118
:1003A000CF91FF90EF90DF90CF9008954AE0C70182
:1003B000B601DF91CF91FF90EF90DF90CF900C943A
:1003C00072010E943D051F920F920FB60F921124E9
:1003D0002F933F934F935F936F937F938F939F934D
:1003E000AF93BF93EF93FF938CE291E00E94D6000E
:1003F000FF91EF91BF91AF919F918F917F916F91FD
:100400005F914F913F912F910F900FBE0F901F90D2
:1004100018951F920F920FB60F9211242F938F935E
:100420009F93EF93FF93E0913C01F0913D01808118
:10043000E0914201F091430182FD12C090818091D0
:1004400045018F5F8F7320914601821751F0E09133
:100450004501F0E0E45DFE4F958F8093450101C0BA
:100460008081FF91EF919F918F912F910F900FBEFF
:100470000F901F9018951F920F920FB60F92112494
:100480002F933F934F935F936F937F938F939F939C
:10049000AF93BF93EF93FF9360912A0170912B016B
:1004A00080E090E00E94870420E030E04AEF53E4CF
:1004B0000E94720320E030E04AE754E40E94DF0328
:1004C0000E9451046130710541F1C4F4672B09F0B9
:1004D00041C02091280181E090E0022E01C0880FE8
:1004E0000A94EAF780959091290189238093290144
:1004F0002F5F2093280180E090E020C062307105DA
:1005000001F16330710531F587E191E00E946001EE
:10051000809129010E945F001DC020912801022EB8
:1005200001C0660F0A94EAF780912901682B609355
:1005300029012F5F2093280181E090E00E94B30100
:100540000BC082E191E00E946001809129010E942C
:100550005F0002C0109228018BE191E00E946001CF
:1005600060912A0170912B0180E090E04AE00E94A6
:10057000720185E291E00E94600110922B011092BD
:100580002A01FF91EF91BF91AF919F918F917F9140
:100590006F915F914F913F912F910F900FBE0F90F0
:1005A0001F9018951F920F920FB60F9211242F9340
:1005B0008F939F9380912A0190912B01803523EC9A
:1005C000920728F4019690932B0180932A019F9122
:1005D0008F912F910F900FBE0F901F901895ECE206
:1005E000F1E01382128288EE93E0A0E0B0E0848311
:1005F0009583A683B78384E091E09183808385EC23
:1006000090E09587848784EC90E09787868780ECDC
:1006100090E0918B808B81EC90E0938B828B82ECCD
:1006200090E0958B848B86EC90E0978B868B118E77
:10063000128E138E148E0895E0913C01F0913D01CD
:1006400082E08083E0913801F09139011082E091DD
:100650003A01F0913B018FEC808310924401E091CC
:100660004001F091410186E08083E0913E01F091EC
:100670003F01808180618083E0913E01F0913F01E4
:10068000808188608083E0913E01F0913F0180810C
:1006900080688083E0913E01F0913F0180818F7DF1
:1006A00080838091B00083628093B0008091B1001C
:1006B0008A608093B10084E28093B30082E18093EA
:1006C000B400539A81E08093700078948091680020
:1006D00084608093680080916D00806180936D00DC
:1006E0007894FFCF5058BB27AA270E948A030C9406
:1006F000DB040E94CD0438F00E94D40420F039F4C9
:100700009F3F19F426F40C94CA040EF4E095E7FB1D
:100710000C94C404E92F0E94EC0458F3BA17620742
:1007200073078407950720F079F4A6F50C940E055D
:100730000EF4E0950B2EBA2FA02D0B01B9019001FC
:100740000C01CA01A0011124FF27591B99F0593F40
:1007500050F4503E68F11A16F040A22F232F342F88
:100760004427585FF3CF469537952795A795F040D6
:100770005395C9F77EF41F16BA0B620B730B840BEB
:10078000BAF09150A1F0FF0FBB1F661F771F881FA3
:10079000C2F70EC0BA0F621F731F841F48F48795FB
:1007A00077956795B795F7959E3F08F0B0CF9395ED
:1007B000880F08F09927EE0F9795879508950E9466
:1007C000F3030C94DB040E94D40458F00E94CD047F
:1007D00040F029F45F3F29F00C94C40451110C94AB
:1007E0000F050C94CA040E94EC0468F39923B1F33A
:1007F000552391F3951B550BBB27AA276217730747
:10080000840738F09F5F5F4F220F331F441FAA1FDA
:10081000A9F335D00E2E3AF0E0E832D09150504096
:10082000E695001CCAF72BD0FE2F29D0660F771F44
:10083000881FBB1F261737074807AB07B0E809F02A
:10084000BB0B802DBF01FF2793585F4F3AF09E3FAF
:10085000510578F00C94C4040C940F055F3FE4F349
:10086000983ED4F3869577956795B795F7959F5FF2
:10087000C9F7880F911D9695879597F90895E1E03E
:10088000660F771F881FBB1F621773078407BA079D
:1008900020F0621B730B840BBA0BEE1F88F7E095F8
:1008A00008950E9458046894B1110C940F0508959E
:1008B0000E94F40488F09F5798F0B92F9927B751F8
:1008C000B0F0E1F0660F771F881F991F1AF0BA95F4
:1008D000C9F714C0B13091F00E940E05B1E008953F
:1008E0000C940E05672F782F8827B85F39F0B93F31
:1008F000CCF3869577956795B395D9F73EF49095A7
:100900008095709561957F4F8F4F9F4F0895E89424
:1009100009C097FB3EF490958095709561957F4F47
:100920008F4F9F4F9923A9F0F92F96E9BB279395F5
:10093000F695879577956795B795F111F8CFFAF405
:10094000BB0F11F460FF1BC06F5F7F4F8F4F9F4F36
:1009500016C0882311F096E911C0772321F09EE894
:10096000872F762F05C0662371F096E8862F70E0FA
:1009700060E02AF09A95660F771F881FDAF7880FD4
:100980009695879597F9089597F99F6780E870E0A5
:1009900060E008959FEF80EC089500240A941616F5
:1009A000170618060906089500240A94121613065D
:1009B000140605060895092E0394000C11F48823EB
:1009C00052F0BB0F40F4BF2B11F460FF04C06F5F07
:1009D0007F4F8F4F9F4F089557FD9058440F551FDD
:1009E00059F05F3F71F04795880F97FB991F61F0B1
:1009F0009F3F79F087950895121613061406551F28
:100A0000F2CF4695F1DF08C0161617061806991F93
:100A1000F1CF86957105610508940895E894BB2788
:100A200066277727CB0197F90895A1E21A2EAA1B12
:100A3000BB1BFD010DC0AA1FBB1FEE1FFF1FA2178E
:100A4000B307E407F50720F0A21BB30BE40BF50B8B
:100A5000661F771F881F991F1A9469F76095709514
:100A6000809590959B01AC01BD01CF010895EE0FDB
:100A7000FF1F0590F491E02D099481E090E0F89437
:080A80000C944205F894FFCF2D
:100A880000000000F7006A0099003E01CA00A800B3
:100A9800BC00503A302000503A3100200954696DAA
:080AA80065723A20000D0A00FE
:00000001FF
