:100000000C9435000C945D000C945D000C945D0024
:100010000C945D000C945D000C945D000C945D00EC
:100020000C945D000C945D000C945D000C945D00DC
:100030000C945D000C945D000C945D000C945D00CC
:100040000C9480020C945D000C944E020C942802D7
:100050000C945D000C945D000C945D000C945D00AC
:100060000C945D000C945D00CA0211241FBECFEFFA
:10007000D8E0DEBFCDBF22E0A4EDB1E001C01D920B
:10008000A63CB207E1F711E0A0E0B1E0E0EDFCE052
:1000900002C005900D92A43DB107D9F710E0C5E369
:1000A000D0E004C02197FE010E942E05C433D10781
:1000B000C9F70E9409030C9466060C940000CF92C5
:1000C000DF92EF92FF920F931F93CF93DF936C0118
:1000D0007A018B01C0E0D0E0CE15DF0589F0D801B0
:1000E0006D918D01D601ED91FC910190F081E02D93
:1000F000C6010995892B11F47E0102C02196ECCF2F
:10010000C701DF91CF911F910F91FF90EF90DF908A
:10011000CF900895089580E090E00895FC01538DFC
:10012000448D252F30E0842F90E0821B930B5417D1
:1001300010F0CF96089501970895FC01918D828D5E
:10014000981761F0828DDF01A80FB11D5D968C912B
:10015000928D9F5F9F73928F90E008958FEF9FEF36
:100160000895FC01918D828D981731F0828DE80FF2
:10017000F11D858D90E008958FEF9FEF0895FC01AC
:10018000918D228D892F90E0805C9F4F821B910979
:100190008F7399270895FC01848DDF01A80FB11D8D
:1001A000A35ABF4F2C91848D90E001968F739927AD
:1001B000848FA689B7892C93A089B1898C9180649A
:1001C0008C93938D848D981306C00288F389E02D5B
:1001D00080818F7D80830895EF92FF920F931F930C
:1001E000CF93DF93EC0181E0888F9B8D8C8D9813EA
:1001F00005C0E889F989808185FD24C0F62E0B8D24
:1002000010E00F5F1F4F0F731127E02E8C8DE81247
:100210000CC00FB607FCFACFE889F989808185FF09
:10022000F5CFCE010E94CB00F1CF8B8DFE01E80F00
:10023000F11DE35AFF4FF0820B8FEA89FB89808121
:10024000806207C0EE89FF896083E889F98980812F
:100250008064808381E090E0DF91CF911F910F91C6
:10026000FF90EF900895CF93DF93EC01888D882362
:10027000C9F0EA89FB89808185FD05C0A889B98913
:100280008C9186FD0FC00FB607FCF5CF808185FFEE
:10029000F2CFA889B9898C9185FFEDCFCE010E945C
:1002A000CB00E7CFDF91CF910895009769F0FC0173
:1002B00001900020E9F73197AF01481B590BBC01B1
:1002C0008DED91E00C945F0080E090E00895CF9375
:1002D000DF930E945501EC0184E291E00E945501F8
:1002E0008C0F9D1FDF91CF91089587E291E00E94CE
:1002F000670181E090E0089582E491E00E94670147
:1003000086E291E00E94670181E090E008950E94FA
:1003100061068F929F92AF92BF92CF92DF92EF923F
:10032000FF920F931F93CF93DF93CDB7DEB7A197C3
:100330000FB6F894DEBF0FBECDBF8C018DE491E007
:100340000E945501F801C280D3800D2C000CEE08EC
:10035000FF08F7FE2BC0E091DD01F091DE01019076
:10036000F081E02D6DE28DED91E009952227332794
:10037000A9012C193D094E095F0919A2CE018196E8
:100380007C019AE0892E912CA12CB12CCA01B901D3
:10039000A50194010E94E404605DF70162937F016E
:1003A000211531054105510589F71AC0A7019601AC
:1003B00019A2CE0181967C018AE0882E912CA12C75
:1003C000B12CCA01B901A50194010E94E404605D49
:1003D000F70162937F01211531054105510589F728
:1003E000C7010E94550184E291E00E945501F80185
:1003F00082819381029799F484E591E00E946701DC
:10040000F8012681378184819581FC01EA5AFF4FEA
:1004100041E050E05183408332973183208386E26C
:1004200091E00E94670181E090E0A1960FB6F894F8
:10043000DEBF0FBECDBFDF91CF911F910F91FF9017
:10044000EF90DF90CF90BF90AF909F908F900895E6
:100450001F920F920FB60F9211242F933F934F9339
:100460005F936F937F938F939F93AF93BF93EF931C
:10047000FF938DED91E00E94CB00FF91EF91BF9132
:10048000AF919F918F917F916F915F914F913F912C
:100490002F910F900FBE0F901F9018951F920F92E3
:1004A0000FB60F9211242F938F939F93EF93FF9387
:1004B000E091ED01F091EE018081E091F301F09186
:1004C000F40182FD12C090818091F6018F5F8F73DD
:1004D0002091F701821751F0E091F601F0E0E3522C
:1004E000FE4F958F8093F60101C08081FF91EF91BF
:1004F0009F918F912F910F900FBE0F901F90189585
:100500001F920F920FB60F9211242F933F938F9348
:100510009F93AF93BF938091D9019091DA01A091FD
:10052000DB01B091DC013091D80123E0230F2D379E
:1005300020F40196A11DB11D05C026E8230F0296E7
:10054000A11DB11D2093D8018093D9019093DA01A8
:10055000A093DB01B093DC018091D4019091D5018F
:10056000A091D601B091D7010196A11DB11D809334
:10057000D4019093D501A093D601B093D701BF9138
:10058000AF919F918F913F912F910F900FBE0F9040
:100590001F901895EDEDF1E01382128288EE93E042
:1005A000A0E0B0E084839583A683B78386E191E0E1
:1005B0009183808385EC90E09587848784EC90E03C
:1005C0009787868780EC90E0918B808B81EC90E020
:1005D000938B828B82EC90E0958B848B86EC90E001
:1005E000978B868B118E128E138E148EEAE7F2E0B3
:1005F0001682178210861186128613861486158637
:1006000016861786108A118A128A138A148A158A06
:100610000895CF93DF93CDB7DEB728970FB6F89440
:10062000DEBF0FBECDBF789484B5826084BD84B533
:10063000816084BD85B5826085BD85B5816085BDDD
:1006400080916E00816080936E0010928100809195
:10065000810082608093810080918100816080931D
:100660008100809180008160809380008091B10042
:1006700084608093B1008091B00081608093B0006D
:1006800080917A00846080937A0080917A00826001
:1006900080937A0080917A00816080937A008091C3
:1006A0007A00806880937A001092C100E091ED0199
:1006B000F091EE0182E08083E091E901F091EA019E
:1006C0001082E091EB01F091EC018FEC80831092AD
:1006D000F501E091F101F091F20186E08083E09173
:1006E000EF01F091F001808180618083E091EF0162
:1006F000F091F001808188608083E091EF01F091BA
:10070000F001808180688083E091EF01F091F00139
:1007100080818F7D808385E691E00E94670188E576
:1007200090E00E94340598878F83DC0111961C921B
:100730001E9213961C921E921297AC5ABF4FBA8308
:10074000A9831D921C92AC014A5A5F4F5C834B8374
:10075000DA011D921C9282E891E00E94670182E01A
:1007600090E00E9434058C0180E191E0F8019183D2
:10077000808388E090E00E9434052C019AE0E92E05
:1007800091E0F92ED2011196FC92EE9281E090E078
:1007900013969C938E9312974F81588515965C9370
:1007A0004E93149717961C930E93169788E090E03B
:1007B0000E9434053C01DC011196FC92EE9282E02D
:1007C00090E013969C938E9312974F8158851596BF
:1007D0005C934E93149717961C930E93169788E08C
:1007E00090E00E9434054C01DC011196FC92EE92DF
:1007F00083E090E013969C938E9312974F815885D7
:1008000015965C934E93149717961C930E93169718
:1008100088E090E00E9434055C01DC011196FC92B6
:10082000EE9284E090E013969C938E9312974F8102
:10083000588515965C934E93149717961C930E93B8
:10084000169788E090E00E9434056C01DC01119657
:10085000FC92EE9285E090E013969C938E93129713
:100860004F81588515965C934E93149717961C9359
:100870000E93169788E090E00E9434051C01DC017D
:100880001196FC92EE9286E090E013969C938E93E4
:1008900012974F81588515965C934E93149717962F
:1008A0001C930E93169788E090E00E9434059C01FB
:1008B000DC011196FC92EE9287E090E013969C93F7
:1008C0008E9312974F81588515965C934E9314978B
:1008D00017961C930E93169789E991E02D833E831A
:1008E0000E946701AF81B88512968D919C911397F4
:1008F000FC01EE0FFF1FEA0FFB1F55824482778237
:10090000668291868086B386A286D586C48637861F
:1009100026862D813E81318B208B079613969C93E2
:100920008E93129785EB91E00E94670185EC91E030
:100930000E94670185EB91E00E946701EB81FC81D9
:1009400080819181892B09F5AF81B885ED91FC916A
:1009500011973296EE0FFF1FEA0FFB1F80819181E6
:10096000DC01ED91FC910190F081E02D0995892B3E
:1009700009F1EF81F885808191810196628173810F
:100980000E9406059183808315C0A981BA818D914B
:100990009C91DC01ED91FC910190F081E02D099595
:1009A000892B41F0E981FA8111821082AB81BC81EF
:1009B0001D921C92BFEFE7EAF1E6B150E040F04033
:1009C000E1F700C00000BACFA1E21A2EAA1BBB1BA0
:1009D000FD010DC0AA1FBB1FEE1FFF1FA217B3070B
:1009E000E407F50720F0A21BB30BE40BF50B661F21
:1009F000771F881F991F1A9469F7609570958095E5
:100A000090959B01AC01BD01CF01089597FB072E86
:100A100016F4009407D077FD09D00E941A0507FC50
:100A200005D03EF4909581959F4F089570956195FE
:100A30007F4F0895AA1BBB1B51E107C0AA1FBB1F14
:100A4000A617B70710F0A61BB70B881F991F5A955A
:100A5000A9F780959095BC01CD010895EE0FFF1F79
:100A60000590F491E02D0994CF93DF9382309105A6
:100A700010F482E090E0E091C402F091C50220E021
:100A800030E0C0E0D0E0309711F14081518148174B
:100A90005907C0F04817590761F482819381209764
:100AA00019F09B838A832BC09093C5028093C40264
:100AB00026C02115310519F04217530718F49A0181
:100AC000BE01DF01EF010280F381E02DDCCF2115B3
:100AD000310509F1281B390B2430310590F41296A9
:100AE0008D919C9113976115710521F0FB01938302
:100AF000828304C09093C5028093C402FD013296A4
:100B000044C0FD01E20FF31F8193919322503109FC
:100B10002D933C933AC02091C2023091C302232B03
:100B200041F420910201309103013093C3022093DC
:100B3000C20220910001309101012115310541F4DB
:100B40002DB73EB74091040150910501241B350B90
:100B5000E091C202F091C302E217F307A0F42E1B4A
:100B60003F0B2817390778F0AC014E5F5F4F241711
:100B7000350748F04E0F5F1F5093C3024093C202E7
:100B80008193919302C0E0E0F0E0CF01DF91CF913B
:100B900008950F931F93CF93DF93009709F48CC0B0
:100BA000FC013297138212820091C4021091C50297
:100BB0000115110581F420813181820F931F20914D
:100BC000C2023091C3022817390779F5F093C302A6
:100BD000E093C20271C0D80140E050E0AE17BF07F9
:100BE00050F412962D913C911397AD0121153105CA
:100BF00009F1D901F3CF9D01DA01338322836081AA
:100C00007181860F971F8217930769F4EC01288181
:100C10003981260F371F2E5F3F4F318320838A8112
:100C20009B8193838283452B29F4F093C502E09343
:100C3000C40242C01396FC93EE931297ED014991C2
:100C400059919E01240F351FE217F30771F480813B
:100C50009181840F951F029611969C938E938281A9
:100C6000938113969C938E931297E0E0F0E0D80165
:100C700012968D919C911397009719F0F8018C01B1
:100C8000F6CF8D919C9198012E5F3F4F820F931F5D
:100C90002091C2023091C3022817390769F43097B6
:100CA00029F41092C5021092C40202C0138212826B
:100CB0001093C3020093C202DF91CF911F910F9155
:100CC000089581E090E0F8940C946606F894FFCFC4
:100CD0000000C60280000000000089010000000042
:100CE0007C0100000000EC005F008E003301BF00BB
:100CF0009D00B1000D0A0072756E2829206E6F7478
:100D000020696D706C656D656E74656420796574BD
:100D100021005441534B3A20534944450054415318
:100D20004B3A2000416464696E67207369646520F2
:100D30007461736B004372656174696E67205461FE
:100D4000736B4D616E61676572206F626A65637473
:100D50002E004372656174696E67205461736B2065
:100D60006F626A656374732E00416464696E672004
:100D70005461736B7320746F205461736B4D616E9B
:100D800061676572003D3D3D3D3D3D3D3D3D3D3D25
:100D90003D3D3D3D005354415254494E472054413E
:040DA000534B53005E
:00000001FF
