:100000000C9435000C945D000C945D000C945D0024
:100010000C945D000C9427020C945D000C945D0020
:100020000C945D000C94EC020C945D000C945D004B
:100030000C945D000C945D000C945D000C945D00CC
:100040000C94DD010C945D000C94AB010C948501C3
:100050000C945D000C945D000C945D000C945D00AC
:100060000C945D000C945D00740311241FBECFEF4F
:10007000D8E0DEBFCDBF22E0AAE2B1E001C01D9210
:10008000A838B207E1F711E0A0E0B1E0E6E2FEE057
:1000900002C005900D92AA32B107D9F710E0C5E36E
:1000A000D0E004C02197FE010E94FF06C433D107AF
:1000B000C9F70E94F3030C9411070C94000020E090
:1000C00030E090E0E1E0F0E0482F50E0BF01022E88
:1000D00002C0660F771F0A94E2F764237523672B2B
:1000E00009F09F5F2F5F3F4F2830310579F7892F47
:1000F000809581700895CF92DF92EF92FF920F93D7
:100100001F93CF93DF936C017A018B01C0E0D0E0A5
:10011000CE15DF0589F0D8016D918D01D601ED91E5
:10012000FC910190F081E02DC6010995892B11F415
:100130007E0102C02196ECCFC701DF91CF911F91C4
:100140000F91FF90EF90DF90CF900895089580E099
:1001500090E00895FC01538D448D252F30E0842FCD
:1001600090E0821B930B541710F0CF9608950197DF
:100170000895FC01918D828D981761F0828DDF01C9
:10018000A80FB11D5D968C91928D9F5F9F73928F8A
:1001900090E008958FEF9FEF0895FC01918D828D7F
:1001A000981731F0828DE80FF11D858D90E008954C
:1001B0008FEF9FEF0895FC01918D228D892F90E0A4
:1001C000805C9F4F821B91098F7399270895FC01D2
:1001D000848DDF01A80FB11DA35ABF4F2C91848DD0
:1001E00090E001968F739927848FA689B7892C9305
:1001F000A089B1898C9180648C93938D848D9813A0
:1002000006C00288F389E02D80818F7D8083089568
:10021000EF92FF920F931F93CF93DF93EC0181E056
:10022000888F9B8D8C8D981305C0E889F989808112
:1002300085FD24C0F62E0B8D10E00F5F1F4F0F734E
:100240001127E02E8C8DE8120CC00FB607FCFACFF8
:10025000E889F989808185FFF5CFCE010E94E7000A
:10026000F1CF8B8DFE01E80FF11DE35AFF4FF082B5
:100270000B8FEA89FB898081806207C0EE89FF8944
:100280006083E889F98980818064808381E090E0DF
:10029000DF91CF911F910F91FF90EF900895CF9331
:1002A000DF93EC01888D8823C9F0EA89FB8980817E
:1002B00085FD05C0A889B9898C9186FD0FC00FB650
:1002C00007FCF5CF808185FFF2CFA889B9898C9191
:1002D00085FFEDCFCE010E94E700E7CFDF91CF9100
:1002E0000895009769F0FC0101900020E9F731972B
:1002F000AF01481B590BBC018DE391E00C947B00CE
:1003000080E090E008950E9405071F920F920FB6BB
:100310000F9211242F933F934F935F936F937F938B
:100320008F939F93AF93BF93EF93FF938DE391E0F0
:100330000E94E700FF91EF91BF91AF919F918F9144
:100340007F916F915F914F913F912F910F900FBED1
:100350000F901F9018951F920F920FB60F921124B5
:100360002F938F939F93EF93FF93E0914D01F09123
:100370004E018081E0915301F091540182FD12C041
:100380009081809156018F5F8F7320915701821762
:1003900051F0E0915601F0E0E35CFE4F958F8093C1
:1003A000560101C08081FF91EF919F918F912F9114
:1003B0000F900FBE0F901F9018951F920F920FB6BF
:1003C0000F9211242F933F938F939F93AF93BF93DB
:1003D0008091390190913A01A0913B01B0913C018B
:1003E0003091380123E0230F2D3720F40196A11D11
:1003F000B11D05C026E8230F0296A11DB11D209353
:1004000038018093390190933A01A0933B01B09356
:100410003C018091340190913501A0913601B09159
:1004200037010196A11DB11D8093340190933501D0
:10043000A0933601B0933701BF91AF919F918F91F7
:100440003F912F910F900FBE0F901F9018951F9204
:100450000F920FB60F9211248F929F92AF92BF927C
:10046000CF92DF92EF92FF922F933F934F935F9340
:100470006F937F938F939F93AF93BF93EF93FF936C
:10048000609174027091750280E090E00E94EF0428
:100490006B017C018091220290912302892B51F003
:1004A00026EF38E24CEB5FE3C701B6010E94570626
:1004B0006B017C016091240270E080E090E00E947A
:1004C000F1044B015C0120E030E040E05FE30E947A
:1004D0002C059B01AC01C701B6010E94EA05A501EC
:1004E00094010E9457060E94C90661307105B1F05F
:1004F00074F4672B09F04FC080917702880F8093C6
:100500007702809176028F5F8093760248C06230D6
:10051000710581F06330710571F13DC08091770202
:10052000880F909176029F5F90937602816080930E
:10053000770235C080917602811107C081E090E09A
:1005400090937B0280937A022AC0F09077028F2DDD
:100550000E945F00882341F017C0F09077028F2D32
:100560000E945F00882381F081E090E090938702F1
:100570008093860214C0809176028111EECF109292
:100580007B0210927A0207C0E0918502F0E0E45805
:10059000FD4FF08204C01092760210927702109202
:1005A000750210927402FF91EF91BF91AF919F91EC
:1005B0008F917F916F915F914F913F912F91FF901C
:1005C000EF90DF90CF90BF90AF909F908F900F9063
:1005D0000FBE0F901F9018951F920F920FB60F929B
:1005E00011242F933F934F935F936F937F938F9338
:1005F0009F93AF93BF93CF93EF93FF938091740238
:1006000090917502803325E7920728F40196909324
:1006100075028093740280912702909128022091A4
:100620002502309126028217930708F042C0892BD9
:1006300009F43FC010922602109225029091B0005A
:1006400080E289278093B000C0917302EC2FF0E024
:10065000EE5DFD4F6781662309F120912202309102
:10066000230280912402689FB0011124232B71F092
:10067000072E000C880B990B0E94F10426EF38E23C
:100680004CEB5FE30E942C050E94D0067093280279
:1006900060932702CF5FC09373020BC010922802B1
:1006A00010922702109273028091B0008F7D809388
:1006B000B000809125029091260201969093260227
:1006C00080932502FF91EF91CF91BF91AF919F91C0
:1006D0008F917F916F915F914F913F912F910F90EB
:1006E0000FBE0F901F901895EDE3F1E01382128278
:1006F00088EE93E0A0E0B0E084839583A683B7837F
:1007000084E091E09183808385EC90E095878487F5
:1007100084EC90E09787868780EC90E0918B808BCB
:1007200081EC90E0938B828B82EC90E0958B848BB4
:1007300086EC90E0978B868B118E128E138E148E22
:10074000EAEDF1E016821782108611861286138672
:100750001486158616861786108A118A128A138ABD
:10076000148A158AE2E2F2E014821382168215825C
:100770001092730210927502109274021092760217
:1007800010927702109279021092780210928702EA
:100790001092860210927B0210927A0210928502C9
:1007A000E0EBF0E0808183628083A1EBB0E08C918C
:1007B0008A608C9384E28093B30082E18093B400DA
:1007C000539A81E08093700080818F7D8083E8E67A
:1007D000F0E0808184608083EDE6F0E080818061DC
:1007E000808378940895CF93DF93CDB7DEB72997B0
:1007F0000FB6F894DEBF0FBECDBFE0914D01F09172
:100800004E0182E08083E0914901F0914A0110821B
:10081000E0914B01F0914C018FEC808310925501D7
:10082000E0915101F091520186E08083E0914F0107
:10083000F0915001808180618083E0914F01F091BF
:100840005001808188608083E0914F01F0915001D8
:10085000808180688083E0914F01F0915001808118
:100860008F7D808301E0FF24F39437E0E32E42E0A4
:10087000D42E80917A0290917B02892BB9F08981E4
:10088000E0918502F0E0E358FD4F108260917C0218
:1008900070E0082E000C990B0E940A07CE01019609
:1008A0000E94710182E191E00E94710180918602B3
:1008B00090918702892BE1F085E191E00E9471011E
:1008C00017C021111EC08DE391E00E94B9008A304B
:1008D00009F47AC090912A01E92FF0E0E55DFE4F1E
:1008E000808381E0890F883008F06BC080932A01F3
:1008F0008DE391E00E94DB00209133011816190668
:1009000004F3222309F4B5CF84E08093290285E023
:1009100080932A0212E0C12C84E0B82E93E0A92E25
:1009200025E0922EEC2DF0E0E55DFE4F80818823DE
:1009300099F147E050E097E0910FE82FF0E0292F80
:10094000241B30E0BF01042E02C0759567950A9400
:10095000E2F7D901AE5DBD4F60FF03C01796DC9290
:1009600002C017960C934150510948F70E945F004E
:1009700028E0210F30E0F901EE5DFD4F882311F0F2
:10098000A78201C0B782E9E0E10FF0E0EE5DFD4F24
:100990009782165FC394C6CFE12FF0E0EE5DFD4F66
:1009A00083E087831F5FE12FF0E0EE5DFD4F17824C
:1009B00081E090E090932802809327021092330107
:1009C00058CFE0922A0194CFE0912A01F0E0E55D52
:1009D000FE4F108210922A01F092330189CFE894E1
:1009E00009C097FB3EF490958095709561957F4F77
:1009F0008F4F9F4F9923A9F0F92F96E9BB27939525
:100A0000F695879577956795B795F111F8CFFAF434
:100A1000BB0F11F460FF1BC06F5F7F4F8F4F9F4F65
:100A200016C0882311F096E911C0772321F09EE8C3
:100A3000872F762F05C0662371F096E8862F70E029
:100A400060E02AF09A95660F771F881FDAF7880F03
:100A50009695879597F908950E943F050C94B005E7
:100A60000E94A20538F00E94A90520F0952311F0FC
:100A70000C9499050C949F0511240C94E4050E9494
:100A8000C10570F3959FC1F3950F50E0551F629F0C
:100A9000F001729FBB27F00DB11D639FAA27F00DD7
:100AA000B11DAA1F649F6627B00DA11D661F829FFE
:100AB0002227B00DA11D621F739FB00DA11D621FE3
:100AC000839FA00D611D221F749F3327A00D611D00
:100AD000231F849F600D211D822F762F6A2F1124E2
:100AE0009F5750409AF0F1F088234AF0EE0FFF1F15
:100AF000BB1F661F771F881F91505040A9F79E3F6C
:100B0000510580F00C9499050C94E4055F3FE4F3E3
:100B1000983ED4F3869577956795B795F795E795C1
:100B20009F5FC1F7FE2B880F911D9695879597F9CA
:100B3000089597F99F6780E870E060E008959FEF5F
:100B400080EC089500240A94161617061806090664
:100B5000089500240A941216130614060506089533
:100B6000092E0394000C11F4882352F0BB0F40F4BB
:100B7000BF2B11F460FF04C06F5F7F4F8F4F9F4FFB
:100B8000089557FD9058440F551F59F05F3F71F07D
:100B90004795880F97FB991F61F09F3F79F08795E4
:100BA0000895121613061406551FF2CF4695F1DF6D
:100BB00008C0161617061806991FF1CF86957105FD
:100BC000610508940895E894BB2766277727CB0131
:100BD00097F908955058BB27AA270E9402060C9443
:100BE000B0050E94A20538F00E94A90520F039F452
:100BF0009F3F19F426F40C949F050EF4E095E7FB53
:100C00000C949905E92F0E94C10558F3BA176207A1
:100C100073078407950720F079F4A6F50C94E30593
:100C20000EF4E0950B2EBA2FA02D0B01B901900107
:100C30000C01CA01A0011124FF27591B99F0593F4B
:100C400050F4503E68F11A16F040A22F232F342F93
:100C50004427585FF3CF469537952795A795F040E1
:100C60005395C9F77EF41F16BA0B620B730B840BF6
:100C7000BAF09150A1F0FF0FBB1F661F771F881FAE
:100C8000C2F70EC0BA0F621F731F841F48F4879506
:100C900077956795B795F7959E3F08F0B0CF9395F8
:100CA000880F08F09927EE0F9795879508950E9471
:100CB0006B060C94B0050E94A90558F00E94A2058D
:100CC00040F029F45F3F29F00C94990551110C94E0
:100CD000E4050C949F050E94C10568F39923B1F3C4
:100CE000552391F3951B550BBB27AA276217730752
:100CF000840738F09F5F5F4F220F331F441FAA1FE6
:100D0000A9F335D00E2E3AF0E0E832D091505040A1
:100D1000E695001CCAF72BD0FE2F29D0660F771F4F
:100D2000881FBB1F261737074807AB07B0E809F035
:100D3000BB0B802DBF01FF2793585F4F3AF09E3FBA
:100D4000510578F00C9499050C94E4055F3FE4F3A9
:100D5000983ED4F3869577956795B795F7959F5FFD
:100D6000C9F7880F911D9695879597F90895E1E049
:100D7000660F771F881FBB1F621773078407BA07A8
:100D800020F0621B730B840BBA0BEE1F88F7E09503
:100D900008950E94D0066894B1110C94E40508955A
:100DA0000E94C90588F09F5798F0B92F9927B7512D
:100DB000B0F0E1F0660F771F881F991F1AF0BA95FF
:100DC000C9F714C0B13091F00E94E305B1E0089575
:100DD0000C94E305672F782F8827B85F39F0B93F67
:100DE000CCF3869577956795B395D9F73EF49095B2
:100DF0008095709561957F4F8F4F9F4F0895EE0FAF
:100E0000FF1F0590F491E02D099481E090E0F894A3
:100E10000C941107FB01DC0101900D920020E1F719
:060E20000895F894FFCFD5
:100E26000000000008017B00AA004F01DB00B900AA
:100E3600CD000D0A00536F6D657468696E67207783
:0A0E4600656E742077726F6E67000E
:107E0000112484B714BE81FFF0D085E080938100F7
:107E100082E08093C00088E18093C10086E0809377
:107E2000C20080E18093C4008EE0C9D0259A86E02C
:107E300020E33CEF91E0309385002093840096BBD3
:107E4000B09BFECF1D9AA8958150A9F7CC24DD24C4
:107E500088248394B5E0AB2EA1E19A2EF3E0BF2EE7
:107E6000A2D0813461F49FD0082FAFD0023811F036
:107E7000013811F484E001C083E08DD089C08234E0
:107E800011F484E103C0853419F485E0A6D080C0E4
:107E9000853579F488D0E82EFF2485D0082F10E0AE
:107EA000102F00270E291F29000F111F8ED06801E7
:107EB0006FC0863521F484E090D080E0DECF843638
:107EC00009F040C070D06FD0082F6DD080E0C81688
:107ED00080E7D80618F4F601B7BEE895C0E0D1E017
:107EE00062D089930C17E1F7F0E0CF16F0E7DF06D8
:107EF00018F0F601B7BEE89568D007B600FCFDCFD4
:107F0000A601A0E0B1E02C9130E011968C91119780
:107F100090E0982F8827822B932B1296FA010C0160
:107F200087BEE89511244E5F5F4FF1E0A038BF0790
:107F300051F7F601A7BEE89507B600FCFDCF97BE46
:107F4000E89526C08437B1F42ED02DD0F82E2BD052
:107F50003CD0F601EF2C8F010F5F1F4F84911BD097
:107F6000EA94F801C1F70894C11CD11CFA94CF0C13
:107F7000D11C0EC0853739F428D08EE10CD085E9AC
:107F80000AD08FE07ACF813511F488E018D01DD067
:107F900080E101D065CF982F8091C00085FFFCCF94
:107FA0009093C60008958091C00087FFFCCF809118
:107FB000C00084FD01C0A8958091C6000895E0E648
:107FC000F0E098E1908380830895EDDF803219F02E
:107FD00088E0F5DFFFCF84E1DECF1F93182FE3DFCA
:107FE0001150E9F7F2DF1F91089580E0E8DFEE27F6
:047FF000FF270994CA
:027FFE00040479
:0400000300007E007B
:00000001FF