:100000000C9435000C945D000C945D000C945D0024
:100010000C945D000C9427020C945D000C945D0020
:100020000C945D000C94CD020C945D000C945D006A
:100030000C945D000C945D000C945D000C945D00CC
:100040000C94DD010C945D000C94AB010C948501C3
:100050000C945D000C945D000C945D000C945D00AC
:100060000C945D000C945D00370311241FBECFEF8C
:10007000D8E0DEBFCDBF22E0A4E3B1E001C01D9215
:10008000A13BB207E1F711E0A0E0B1E0E4E1FCE060
:1000900002C005900D92A433B107D9F710E0C5E373
:1000A000D0E004C02197FE010E94FD05C433D107B2
:1000B000C9F70E9476030C9408060C940000CF92B6
:1000C000DF92EF92FF920F931F93CF93DF936C0118
:1000D0007A018B01C0E0D0E0CE15DF0589F0D801B0
:1000E0006D918D01D601ED91FC910190F081E02D93
:1000F000C6010995892B11F47E0102C02196ECCF2F
:10010000C701DF91CF911F910F91FF90EF90DF908A
:10011000CF900895089580E090E00895FC01538DFC
:10012000448D252F30E0842F90E0821B930B5417D1
:1001300010F0CF96089501970895FC01918D828D5E
:10014000981761F0828DDF01A80FB11D5D968C912B
:10015000928D9F5F9F73928F90E008958FEF9FEF36
:100160000895FC01918D828D981731F0828DE80FF2
:10017000F11D858D90E008958FEF9FEF0895FC01AC
:10018000918D228D892F90E0805C9F4F821B910979
:100190008F7399270895FC01848DDF01A80FB11D8D
:1001A000A35ABF4F2C91848D90E001968F739927AD
:1001B000848FA689B7892C93A089B1898C9180649A
:1001C0008C93938D848D981306C00288F389E02D5B
:1001D00080818F7D80830895EF92FF920F931F930C
:1001E000CF93DF93EC0181E0888F9B8D8C8D9813EA
:1001F00005C0E889F989808185FD24C0F62E0B8D24
:1002000010E00F5F1F4F0F731127E02E8C8DE81247
:100210000CC00FB607FCFACFE889F989808185FF09
:10022000F5CFCE010E94CB00F1CF8B8DFE01E80F00
:10023000F11DE35AFF4FF0820B8FEA89FB89808121
:10024000806207C0EE89FF896083E889F98980812F
:100250008064808381E090E0DF91CF911F910F91C6
:10026000FF90EF900895CF93DF93EC01888D882362
:10027000C9F0EA89FB89808185FD05C0A889B98913
:100280008C9186FD0FC00FB607FCF5CF808185FFEE
:10029000F2CFA889B9898C9185FFEDCFCE010E945C
:1002A000CB00E7CFDF91CF91089520E030E090E0E0
:1002B000E1E0F0E0482F50E0BF01022E02C0660FDF
:1002C000771F0A94E2F764237523672B09F09F5F79
:1002D0002F5F3F4F2830310579F7892F8095817046
:1002E0000895009769F0FC0101900020E9F731972B
:1002F000AF01481B590BBC018CEC91E00C945F00E2
:1003000080E090E008950E9403061F920F920FB6BE
:100310000F9211242F933F934F935F936F937F938B
:100320008F939F93AF93BF93EF93FF938CEC91E0E8
:100330000E94CB00FF91EF91BF91AF919F918F9160
:100340007F916F915F914F913F912F910F900FBED1
:100350000F901F9018951F920F920FB60F921124B5
:100360002F938F939F93EF93FF93E091DC01F09194
:10037000DD018081E091E201F091E30182FD12C094
:1003800090818091E5018F5F8F732091E601821744
:1003900051F0E091E501F0E0E453FE4F958F80933A
:1003A000E50101C08081FF91EF919F918F912F9185
:1003B0000F900FBE0F901F9018951F920F920FB6BF
:1003C0000F9211242F933F938F939F93AF93BF93DB
:1003D0008091C8019091C901A091CA01B091CB014F
:1003E0003091C70123E0230F2D3720F40196A11D82
:1003F000B11D05C026E8230F0296A11DB11D209353
:10040000C7018093C8019093C901A093CA01B0931A
:10041000CB018091C3019091C401A091C501B0911D
:10042000C6010196A11DB11D8093C3019093C40123
:10043000A093C501B093C601BF91AF919F918F91D9
:100440003F912F910F900FBE0F901F9018951F9204
:100450000F920FB60F9211242F933F934F935F93F8
:100460006F937F938F939F93AF93BF93EF93FF937C
:100470006091390170913A0180E090E00E945A0445
:1004800020E030E04AE753E40E94E80420E030E056
:100490004AEF53E40E9455050E94C705613071057B
:1004A000B1F074F4672B09F061C080913801880FB6
:1004B00080933801809137018F5F8093370158C056
:1004C0006230710581F06330710589F14FC0809110
:1004D0003801880F909137019F5F909337018160B9
:1004E0008093380145C080913701811109C082E1B4
:1004F00091E00E9471018AE191E00E94710138C08F
:10050000809138010E945501811104C08DE191E074
:100510000E947101E091CC01F091CD010190F08138
:10052000E02D609138018CEC91E0099521C080911B
:100530003701811105C08AE291E00E94710116C065
:10054000809138010E945501882321F08DE191E0CE
:100550000E947101E091CC01F091CD010190F081F8
:10056000E02D609138018CEC91E0099510923701F3
:1005700010923A0110923901FF91EF91BF91AF9122
:100580009F918F917F916F915F914F913F912F91AB
:100590000F900FBE0F901F9018951F920F920FB6DD
:1005A0000F9211242F933F934F935F938F939F93B9
:1005B000EF93FF938091390190913A01803325E7C1
:1005C000920728F4019690933A0180933901809123
:1005D0003C0190913D012091350130913601821707
:1005E000930778F5892B69F1109236011092350145
:1005F0009091B00080E289278093B000809134010F
:10060000E82FF0E0E25CFE4F9081992379F044EF0F
:1006100051E0949F9001959F300D112430933D013E
:1006200020933C018F5F809334010BC010923D01F9
:1006300010923C01109234018091B0008F7D809324
:10064000B00080913501909136010196909336016A
:1006500080933501FF91EF919F918F915F914F9121
:100660003F912F910F900FBE0F901F901895ECECBB
:10067000F1E01382128288EE93E0A0E0B0E0848380
:100680009583A683B78384E091E09183808385EC92
:1006900090E09587848784EC90E09787868780EC4C
:1006A00090E0918B808B81EC90E0938B828B82EC3D
:1006B00090E0958B848B86EC90E0978B868B118EE7
:1006C000128E138E148EE9E6F2E0168217821086DF
:1006D0001186128613861486158616861786108A4A
:1006E000118A128A138A148A158A0895E091DC010E
:1006F000F091DD0182E08083E091D801F091D90191
:100700001082E091DA01F091DB018FEC808310928E
:10071000E401E091E001F091E10186E08083E09165
:10072000DE01F091DF01808180618083E091DE0154
:10073000F091DF01808188608083E091DE01F0919B
:10074000DF01808180688083E091DE01F091DF012C
:1007500080818F7D80838091B00083628093B00020
:100760008091B1008A608093B1008AE38093B300E6
:100770008093B400539A81E0809370008091B00020
:100780008F7D8093B00080916800846080936800C2
:1007900080916D00806180936D00789411E001E09C
:1007A0002FE1F22E32E0E32ED3E08CEC91E00E94B8
:1007B000BF002091C201181619061CF4222309F467
:1007C00057C0222391F384E080933E0185E080931B
:1007D0003F01C2E0D12C84E0C82E95E0B92EED2D6A
:1007E000F0E0EE55FE4F80818823A1F147E050E014
:1007F00097E09C0F682F70E0292F241B30E0FB014D
:10080000042E02C0F595E7950A94E2F7E0FF05C0D3
:10081000F901E25CFE4FE08204C0F901E25CFE4FA8
:1008200010834150510940F70E94550128E02C0FD8
:1008300030E0F901E25CFE4F882311F0D08301C063
:10084000C082E9E0EC0FF0E0E25CFE4FB082C65FF0
:10085000D394C5CFEC2FF0E0E25CFE4FD08381E073
:1008600090E090933D0180933C011092C2019DCF96
:100870008CEC91E00E949D008A3089F090913B01C0
:10088000E92FF0E0EE55FE4F808381E0890F803242
:1008900018F480933B0189CFF0923B0186CFE09121
:1008A0003B01F0E0EE55FE4F108210923B010093A9
:1008B000C2017BCFE89409C097FB3EF490958095E8
:1008C000709561957F4F8F4F9F4F9923A9F0F92F16
:1008D00096E9BB279395F695879577956795B79594
:1008E000F111F8CFFAF4BB0F11F460FF1BC06F5F7A
:1008F0007F4F8F4F9F4F16C0882311F096E911C08C
:10090000772321F09EE8872F762F05C0662371F0AC
:1009100096E8862F70E060E02AF09A95660F771FC0
:10092000881FDAF7880F9695879597F9089597F9B4
:100930009F6780E870E060E008959FEF80EC089585
:1009400000240A94161617061806090608950024AE
:100950000A9412161306140605060895092E039428
:10096000000C11F4882352F0BB0F40F4BF2B11F49C
:1009700060FF04C06F5F7F4F8F4F9F4F089557FDFB
:100980009058440F551F59F05F3F71F04795880FFD
:1009900097FB991F61F09F3F79F087950895121694
:1009A00013061406551FF2CF4695F1DF08C0161640
:1009B00017061806991FF1CF8695710561050894F1
:1009C0000895E894BB2766277727CB0197F9089508
:1009D0005058BB27AA270E9400050C94AE040E9421
:1009E000A00438F00E94A70420F039F49F3F19F4C6
:1009F00026F40C949D040EF4E095E7FB0C94970408
:100A0000E92F0E94BF0458F3BA17620773078407DF
:100A1000950720F079F4A6F50C94E1040EF4E09526
:100A20000B2EBA2FA02D0B01B90190010C01CA01A8
:100A3000A0011124FF27591B99F0593F50F4503E53
:100A400068F11A16F040A22F232F342F4427585F45
:100A5000F3CF469537952795A795F0405395C9F75D
:100A60007EF41F16BA0B620B730B840BBAF0915015
:100A7000A1F0FF0FBB1F661F771F881FC2F70EC0B4
:100A8000BA0F621F731F841F48F487957795679587
:100A9000B795F7959E3F08F0B0CF9395880F08F073
:100AA0009927EE0F9795879508950E9469050C94F4
:100AB000AE040E94A70458F00E94A00440F029F45C
:100AC0005F3F29F00C94970451110C94E2040C94AC
:100AD0009D040E94BF0468F39923B1F3552391F359
:100AE000951B550BBB27AA2762177307840738F09D
:100AF0009F5F5F4F220F331F441FAA1FA9F335D0FA
:100B00000E2E3AF0E0E832D091505040E695001CAD
:100B1000CAF72BD0FE2F29D0660F771F881FBB1F67
:100B2000261737074807AB07B0E809F0BB0B802D45
:100B3000BF01FF2793585F4F3AF09E3F510578F071
:100B40000C9497040C94E2045F3FE4F3983ED4F3D2
:100B5000869577956795B795F7959F5FC9F7880F45
:100B6000911D9695879597F90895E1E0660F771F97
:100B7000881FBB1F621773078407BA0720F0621B28
:100B8000730B840BBA0BEE1F88F7E09508950E9453
:100B9000CE056894B1110C94E20408950E94C70434
:100BA00088F09F5798F0B92F9927B751B0F0E1F02E
:100BB000660F771F881F991F1AF0BA95C9F714C0DE
:100BC000B13091F00E94E104B1E008950C94E10489
:100BD000672F782F8827B85F39F0B93FCCF3869517
:100BE00077956795B395D9F73EF490958095709574
:100BF00061957F4F8F4F9F4F0895EE0FFF1F059018
:100C0000F491E02D099481E090E0F8940C940806AA
:040C1000F894FFCF86
:100C140000000000EC005F008E003301BF009D0067
:100C2400B100207C2053746F70000D0A00504152B3
:100C3400495459204552524F5200537461727420E2
:040C44007C20000010
:107E0000112484B714BE81FFF0D085E080938100F7
:107E100082E08093C00088E18093C10086E0809377
:107E2000C20080E18093C4008EE0C9D0259A86E02C
:107E300020E33CEF91E0309385002093840096BBD3
:107E4000B09BFECF1D9AA8958150A9F7CC24DD24C4
:107E500088248394B5E0AB2EA1E19A2EF3E0BF2EE7
:107E6000A2D0813461F49FD0082FAFD0023811F036
:107E7000013811F484E001C083E08DD089C08234E0
:107E800011F484E103C0853419F485E0A6D080C0E4
:107E9000853579F488D0E82EFF2485D0082F10E0AE
:107EA000102F00270E291F29000F111F8ED06801E7
:107EB0006FC0863521F484E090D080E0DECF843638
:107EC00009F040C070D06FD0082F6DD080E0C81688
:107ED00080E7D80618F4F601B7BEE895C0E0D1E017
:107EE00062D089930C17E1F7F0E0CF16F0E7DF06D8
:107EF00018F0F601B7BEE89568D007B600FCFDCFD4
:107F0000A601A0E0B1E02C9130E011968C91119780
:107F100090E0982F8827822B932B1296FA010C0160
:107F200087BEE89511244E5F5F4FF1E0A038BF0790
:107F300051F7F601A7BEE89507B600FCFDCF97BE46
:107F4000E89526C08437B1F42ED02DD0F82E2BD052
:107F50003CD0F601EF2C8F010F5F1F4F84911BD097
:107F6000EA94F801C1F70894C11CD11CFA94CF0C13
:107F7000D11C0EC0853739F428D08EE10CD085E9AC
:107F80000AD08FE07ACF813511F488E018D01DD067
:107F900080E101D065CF982F8091C00085FFFCCF94
:107FA0009093C60008958091C00087FFFCCF809118
:107FB000C00084FD01C0A8958091C6000895E0E648
:107FC000F0E098E1908380830895EDDF803219F02E
:107FD00088E0F5DFFFCF84E1DECF1F93182FE3DFCA
:107FE0001150E9F7F2DF1F91089580E0E8DFEE27F6
:047FF000FF270994CA
:027FFE00040479
:0400000300007E007B
:00000001FF