:100000000C9435000C945D000C945D000C945D0024
:100010000C945D000C9493020C945D000C945D00B4
:100020000C945D000C9430030C945D000C945D0006
:100030000C945D000C945D000C945D000C945D00CC
:100040000C9449020C945D000C9417020C94F1017D
:100050000C945D000C945D000C945D000C945D00AC
:100060000C945D000C945D00A60311241FBECFEF1D
:10007000D8E0DEBFCDBF22E0A8E6B1E001C01D920E
:10008000A33CB207E1F711E0A0E0B1E0ECE5FDE050
:1000900002C005900D92A836B107D9F710E0C5E36C
:1000A000D0E004C02197FE010E94A106C433D1070D
:1000B000C9F70E94E5030C94AC060C940000E09193
:1000C000DE01F091DF010190F081E02D682F8EEDCF
:1000D00091E00994CF92DF92EF92FF920F931F93DA
:1000E000CF93DF936C017A018B01C0E0D0E0CE1595
:1000F000DF0589F0D8016D918D01D601ED91FC915C
:100100000190F081E02DC6010995892B11F47E0143
:1001100002C02196ECCFC701DF91CF911F910F91C3
:10012000FF90EF90DF90CF900895089580E090E0E9
:100130000895FC01538D448D252F30E0842F90E0ED
:10014000821B930B541710F0CF96089501970895D2
:10015000FC01918D828D981761F0828DDF01A80FCF
:10016000B11D5D968C91928D9F5F9F73928F90E0F1
:1001700008958FEF9FEF0895FC01918D828D981760
:1001800031F0828DE80FF11D858D90E008958FEF9D
:100190009FEF0895FC01918D228D892F90E0805C66
:1001A0009F4F821B91098F7399270895FC01848DBD
:1001B000DF01A80FB11DA35ABF4F2C91848D90E091
:1001C00001968F739927848FA689B7892C93A0896C
:1001D000B1898C9180648C93938D848D981306C023
:1001E0000288F389E02D80818F7D80830895EF92CE
:1001F000FF920F931F93CF93DF93EC0181E0888FE1
:100200009B8D8C8D981305C0E889F989808185FDC7
:1002100024C0F62E0B8D10E00F5F1F4F0F731127B8
:10022000E02E8C8DE8120CC00FB607FCFACFE889DF
:10023000F989808185FFF5CFCE010E94D600F1CFEC
:100240008B8DFE01E80FF11DE35AFF4FF0820B8FFB
:10025000EA89FB898081806207C0EE89FF8960831B
:10026000E889F98980818064808381E090E0DF9172
:10027000CF911F910F91FF90EF900895CF93DF934F
:10028000EC01888D8823C9F0EA89FB89808185FD8E
:1002900005C0A889B9898C9186FD0FC00FB607FCEF
:1002A000F5CF808185FFF2CFA889B9898C9185FF30
:1002B000EDCFCE010E94D600E7CFDF91CF91089518
:1002C000009769F0FC0101900020E9F73197AF0138
:1002D000481B590BBC018EED91E00C946A0080E044
:1002E00090E00895CF93DF930E946001EC0182E1DA
:1002F00091E00E9460018C0F9D1FDF91CF910895C6
:100300008F929F92AF92BF920F931F93CF93DF93E1
:10031000CDB7DEB7A1970FB6F894DEBF0FBECDBF45
:1003200019A2423008F44AE08E010F5D1F4F842E5F
:10033000912CA12CB12CA50194010E946A05E62FF5
:10034000B901CA0101501109EA3014F4E05D01C09D
:10035000E95CD801EC93232B242B252B61F7C801F2
:100360000E946001A1960FB6F894DEBF0FBECDBF0C
:10037000DF91CF911F910F91BF90AF909F908F9081
:100380000895CF92DF92EF92FF92CF93DF936C01AB
:10039000990FEE08FF08F7FE17C08DE20E945F007C
:1003A000EC0166277727CB016C197D098E099F091F
:1003B0004AE00E9480018C0F9D1FDF91CF91FF903A
:1003C000EF90DF90CF9008954AE0C701B601DF912A
:1003D000CF91FF90EF90DF90CF900C9480010E941E
:1003E000A7061F920F920FB60F9211242F933F93DF
:1003F0004F935F936F937F938F939F93AF93BF932D
:10040000EF93FF938EED91E00E94D600FF91EF9164
:10041000BF91AF919F918F917F916F915F914F911C
:100420003F912F910F900FBE0F901F9018951F9224
:100430000F920FB60F9211242F938F939F93EF93E8
:10044000FF93E091EE01F091EF018081E091F401E2
:10045000F091F50182FD12C090818091F7018F5FCC
:100460008F732091F801821751F0E091F701F0E0CD
:10047000E252FE4F958F8093F70101C08081FF917A
:10048000EF919F918F912F910F900FBE0F901F9022
:1004900018951F920F920FB60F9211242F933F932E
:1004A0008F939F93AF93BF938091DA019091DB017B
:1004B000A091DC01B091DD013091D90123E0230F3F
:1004C0002D3720F40196A11DB11D05C026E8230F8C
:1004D0000296A11DB11D2093D9018093DA0190935A
:1004E000DB01A093DC01B093DD018091D5019091F7
:1004F000D601A091D701B091D8010196A11DB11DDF
:100500008093D5019093D601A093D701B093D801E1
:10051000BF91AF919F918F913F912F910F900FBEFF
:100520000F901F9018951F920F920FB60F921124E3
:100530002F933F934F935F936F937F938F939F93EB
:10054000AF93BF93EF93FF9360916D0170916E0134
:1005500080E090E00E94DC0420E030E04AE753E4D1
:100560000E948C0520E030E04AEF53E40E94F90538
:100570000E946B0661307105C1F084F4672B09F0AD
:1005800047C080916C01880F80936C0180916B0152
:100590008F5F80936B0180E090E014C06230710542
:1005A000A1F06330710519F133C080916C01880F9F
:1005B00090916B019F5F90936B01816080936C01C0
:1005C00081E090E00E94C10125C080916B01811102
:1005D00005C085E391E00E9460011CC08AE391E0C0
:1005E0000E94600180916C010E945F0013C08091A5
:1005F0006B01811105C08FE391E00E94600108C08A
:1006000085E491E00E94600180916C010E945F008E
:1006100010926B018AE491E00E94600160916D018B
:1006200070916E0180E090E04AE00E94800182E1DA
:1006300091E00E94600110926E0110926D01FF9195
:10064000EF91BF91AF919F918F917F916F915F914A
:100650004F913F912F910F900FBE0F901F901895C3
:100660001F920F920FB60F9211242F933F934F9327
:100670005F936F937F938F939F93AF93BF93EF930A
:10068000FF9380916D0190916E01803325E7920771
:1006900028F4019690936E0180936D0180916F0113
:1006A000909170012091690130916A01821793073E
:1006B00098F5892B89F110926A0110926901909145
:1006C000B00080E289278093B00080916801E82F14
:1006D000F0E0EF58FE4F9081992379F044EF51E01C
:1006E000949F9001959F300D1124309370012093B9
:1006F0006F018F5F809368010FC01092700110929C
:100700006F01109268018091B0008F7D8093B000DE
:1007100084E591E00E9472018091690190916A01E3
:10072000019690936A0180936901FF91EF91BF91C7
:10073000AF919F918F917F916F915F914F913F9179
:100740002F910F900FBE0F901F901895EEEDF1E0D6
:100750001382128288EE93E0A0E0B0E08483958358
:10076000A683B78384E091E09183808385EC90E059
:100770009587848784EC90E09787868780EC90E06B
:10078000918B808B81EC90E0938B828B82EC90E05C
:10079000958B848B86EC90E0978B868B118E128ED6
:1007A000138E148EEBE7F2E0168217821086118604
:1007B000128613861486158616861786108A118A65
:1007C000128A138A148A158A0895CF93DF931F9291
:1007D000CDB7DEB7E091EE01F091EF0182E08083CA
:1007E000E091EA01F091EB011082E091EC01F091CF
:1007F000ED018FEC80831092F601E091F201F0910F
:10080000F30186E08083E091F001F091F1018081B5
:1008100080618083E091F001F091F1018081886036
:100820008083E091F001F091F10180818068808304
:10083000E091F001F091F10180818F7D80838091C2
:10084000B00083628093B0008091B1008A60809391
:10085000B1008AE38093B3008093B400539A81E09F
:10086000809370008091B0008F7D8093B000809164
:10087000680084608093680080916D00806180933F
:100880006D00789432E0C32EBB24B39401E010E0F5
:10089000EE24E394F12C53E0D52E8EED91E00E94EE
:1008A000CA0018161906CCF785E191E00E94720182
:1008B0008EED91E00E94A800898384E0809371010D
:1008C00085E08093720182E090E0A4E0B5E0E1E091
:1008D000F0E0EC0FFD1FE90FF11D4081442309F406
:1008E00044C067E070E027E0A22EA80E50E02A2D59
:1008F000261B30E0FA01062E02C0F595E7950A9412
:10090000E2F7E0FF05C0F901EF58FE4FC08204C0D6
:10091000F901EF58FE4FB0826150710940F728E0AD
:10092000280F60E070E0A12CF801062E02C0EE0F47
:10093000FF1F0A94E2F7E423F523EF2B09F0A394B9
:100940006F5F7F4F6830710579F730E0A0FC2FC0F2
:10095000F901EF58FE4FD082E9E0E80FF0E0EF58E0
:10096000FE4FB083865F9F5FB2CFE82FF0E0EF5875
:10097000FE4FD082A12CEA2DF0E0EF58FE4F6081AF
:10098000662361F070E080E090E04AE00E94800120
:1009900083E291E00E946001A394EDCF85E291E0B3
:1009A0000E947201F0927001E0926F0176CFF9011E
:1009B000EF58FE4FA083D0CFE89409C097FB3EF4D8
:1009C00090958095709561957F4F8F4F9F4F99239C
:1009D000A9F0F92F96E9BB279395F695879577951A
:1009E0006795B795F111F8CFFAF4BB0F11F460FFDA
:1009F0001BC06F5F7F4F8F4F9F4F16C0882311F032
:100A000096E911C0772321F09EE8872F762F05C045
:100A1000662371F096E8862F70E060E02AF09A95E0
:100A2000660F771F881FDAF7880F9695879597F9D5
:100A3000089597F99F6780E870E060E008959FEF60
:100A400080EC089500240A94161617061806090665
:100A5000089500240A941216130614060506089534
:100A6000092E0394000C11F4882352F0BB0F40F4BC
:100A7000BF2B11F460FF04C06F5F7F4F8F4F9F4FFC
:100A8000089557FD9058440F551F59F05F3F71F07E
:100A90004795880F97FB991F61F09F3F79F08795E5
:100AA0000895121613061406551FF2CF4695F1DF6E
:100AB00008C0161617061806991FF1CF86957105FE
:100AC000610508940895E894BB2766277727CB0132
:100AD00097F90895A1E21A2EAA1BBB1BFD010DC0B8
:100AE000AA1FBB1FEE1FFF1FA217B307E407F507DE
:100AF00020F0A21BB30BE40BF50B661F771F881FBA
:100B0000991F1A9469F760957095809590959B014F
:100B1000AC01BD01CF0108955058BB27AA270E9400
:100B2000A4050C9430050E94220538F00E94290586
:100B300020F039F49F3F19F426F40C941F050EF4AD
:100B4000E095E7FB0C941905E92F0E94410558F345
:100B5000BA17620773078407950720F079F4A6F5A2
:100B60000C9463050EF4E0950B2EBA2FA02D0B010B
:100B7000B90190010C01CA01A0011124FF27591BE2
:100B800099F0593F50F4503E68F11A16F040A22FE8
:100B9000232F342F4427585FF3CF46953795279559
:100BA000A795F0405395C9F77EF41F16BA0B620B58
:100BB000730B840BBAF09150A1F0FF0FBB1F661F9F
:100BC000771F881FC2F70EC0BA0F621F731F841FE2
:100BD00048F4879577956795B795F7959E3F08F008
:100BE000B0CF9395880F08F09927EE0F97958795CA
:100BF00008950E940D060C9430050E94290558F0B6
:100C00000E94220540F029F45F3F29F00C94190559
:100C100051110C9464050C941F050E94410568F362
:100C20009923B1F3552391F3951B550BBB27AA27A5
:100C300062177307840738F09F5F5F4F220F331FDF
:100C4000441FAA1FA9F335D00E2E3AF0E0E832D0A7
:100C500091505040E695001CCAF72BD0FE2F29D0AA
:100C6000660F771F881FBB1F261737074807AB077C
:100C7000B0E809F0BB0B802DBF01FF2793585F4FF1
:100C80003AF09E3F510578F00C9419050C946405D8
:100C90005F3FE4F3983ED4F3869577956795B795D3
:100CA000F7959F5FC9F7880F911D9695879597F9DE
:100CB0000895E1E0660F771F881FBB1F6217730757
:100CC0008407BA0720F0621B730B840BBA0BEE1F6C
:100CD00088F7E09508950E9472066894B1110C940B
:100CE000640508950E94490588F09F5798F0B92F30
:100CF0009927B751B0F0E1F0660F771F881F991F51
:100D00001AF0BA95C9F714C0B13091F00E9463058A
:100D1000B1E008950C946305672F782F8827B85F9A
:100D200039F0B93FCCF3869577956795B395D9F7A8
:100D30003EF490958095709561957F4F8F4F9F4FB2
:100D40000895EE0FFF1F0590F491E02D099481E0C6
:0C0D500090E0F8940C94AC06F894FFCFEF
:100D5C0000000000F7006A0099003E01CA00A800DC
:100D6C00BC000D0A004141414141414141414141D9
:100D7C004141002D004152524159204F46205055BF
:100D8C004C5345530053746F7000503A302000534D
:100D9C007461727400503A312000200954696D65F9
:100DAC00723A20005472616E736D697373696F6E61
:080DBC0020656E6465642100EE
:107E0000112484B714BE81FFF0D085E080938100F7
:107E100082E08093C00088E18093C10086E0809377
:107E2000C20080E18093C4008EE0C9D0259A86E02C
:107E300020E33CEF91E0309385002093840096BBD3
:107E4000B09BFECF1D9AA8958150A9F7CC24DD24C4
:107E500088248394B5E0AB2EA1E19A2EF3E0BF2EE7
:107E6000A2D0813461F49FD0082FAFD0023811F036
:107E7000013811F484E001C083E08DD089C08234E0
:107E800011F484E103C0853419F485E0A6D080C0E4
:107E9000853579F488D0E82EFF2485D0082F10E0AE
:107EA000102F00270E291F29000F111F8ED06801E7
:107EB0006FC0863521F484E090D080E0DECF843638
:107EC00009F040C070D06FD0082F6DD080E0C81688
:107ED00080E7D80618F4F601B7BEE895C0E0D1E017
:107EE00062D089930C17E1F7F0E0CF16F0E7DF06D8
:107EF00018F0F601B7BEE89568D007B600FCFDCFD4
:107F0000A601A0E0B1E02C9130E011968C91119780
:107F100090E0982F8827822B932B1296FA010C0160
:107F200087BEE89511244E5F5F4FF1E0A038BF0790
:107F300051F7F601A7BEE89507B600FCFDCF97BE46
:107F4000E89526C08437B1F42ED02DD0F82E2BD052
:107F50003CD0F601EF2C8F010F5F1F4F84911BD097
:107F6000EA94F801C1F70894C11CD11CFA94CF0C13
:107F7000D11C0EC0853739F428D08EE10CD085E9AC
:107F80000AD08FE07ACF813511F488E018D01DD067
:107F900080E101D065CF982F8091C00085FFFCCF94
:107FA0009093C60008958091C00087FFFCCF809118
:107FB000C00084FD01C0A8958091C6000895E0E648
:107FC000F0E098E1908380830895EDDF803219F02E
:107FD00088E0F5DFFFCF84E1DECF1F93182FE3DFCA
:107FE0001150E9F7F2DF1F91089580E0E8DFEE27F6
:047FF000FF270994CA
:027FFE00040479
:0400000300007E007B
:00000001FF