:100000000C9435000C945D000C945D000C945D0024
:100010000C945D000C9485020C945D000C945D00C2
:100020000C945D000C9422030C945D000C945D0014
:100030000C945D000C945D000C945D000C945D00CC
:100040000C943B020C945D000C9409020C94E301A7
:100050000C945D000C945D000C945D000C945D00AC
:100060000C945D000C945D009C0311241FBECFEF27
:10007000D8E0DEBFCDBF22E0AAE5B1E001C01D920D
:10008000A53BB207E1F711E0A0E0B1E0E0E5FDE05B
:1000900002C005900D92AA35B107D9F710E0C5E36B
:1000A000D0E004C02197FE010E949B06C433D10713
:1000B000C9F70E94DB030C94A6060C940000E091A3
:1000C000D001F091D1010190F081E02D682F80EDF9
:1000D00091E00994CF92DF92EF92FF920F931F93DA
:1000E000CF93DF936C017A018B01C0E0D0E0CE1595
:1000F000DF0589F0D8016D918D01D601ED91FC915C
:100100000190F081E02DC6010995892B11F47E0143
:1001100002C02196ECCFC701DF91CF911F910F91C3
:10012000FF90EF90DF90CF900895089580E090E0E9
:100130000895FC01538D448D252F30E0842F90E0ED
:10014000821B930B541710F0CF96089501970895D2
:10015000FC01918D828D981761F0828DDF01A80FCF
:10016000B11D5D968C91928D9F5F9F73928F90E0F1
:1001700008958FEF9FEF0895FC01918D828D981760
:1001800031F0828DE80FF11D858D90E008958FEF9D
:100190009FEF0895FC01918D228D892F90E0805C66
:1001A0009F4F821B91098F7399270895FC01848DBD
:1001B000DF01A80FB11DA35ABF4F2C91848D90E091
:1001C00001968F739927848FA689B7892C93A0896C
:1001D000B1898C9180648C93938D848D981306C023
:1001E0000288F389E02D80818F7D80830895EF92CE
:1001F000FF920F931F93CF93DF93EC0181E0888FE1
:100200009B8D8C8D981305C0E889F989808185FDC7
:1002100024C0F62E0B8D10E00F5F1F4F0F731127B8
:10022000E02E8C8DE8120CC00FB607FCFACFE889DF
:10023000F989808185FFF5CFCE010E94D600F1CFEC
:100240008B8DFE01E80FF11DE35AFF4FF0820B8FFB
:10025000EA89FB898081806207C0EE89FF8960831B
:10026000E889F98980818064808381E090E0DF9172
:10027000CF911F910F91FF90EF900895CF93DF934F
:10028000EC01888D8823C9F0EA89FB89808185FD8E
:1002900005C0A889B9898C9186FD0FC00FB607FCEF
:1002A000F5CF808185FFF2CFA889B9898C9185FF30
:1002B000EDCFCE010E94D600E7CFDF91CF91089518
:1002C000009769F0FC0101900020E9F73197AF0138
:1002D000481B590BBC0180ED91E00C946A0080E052
:1002E00090E008958F929F92AF92BF920F931F93C9
:1002F000CF93DF93CDB7DEB7A1970FB6F894DEBFEB
:100300000FBECDBF19A2423008F44AE08E010F5D46
:100310001F4F842E912CA12CB12CA50194010E9479
:100320006405E62FB901CA0101501109EA3014F43D
:10033000E05D01C0E95CD801EC93232B242B252B35
:1003400061F7C8010E946001A1960FB6F894DEBF64
:100350000FBECDBFDF91CF911F910F91BF90AF9096
:100360009F908F900895CF92DF92EF92FF92CF935C
:10037000DF936C01990FEE08FF08F7FE17C08DE2BE
:100380000E945F00EC0166277727CB016C197D097D
:100390008E099F094AE00E9472018C0F9D1FDF9118
:1003A000CF91FF90EF90DF90CF9008954AE0C70182
:1003B000B601DF91CF91FF90EF90DF90CF900C943A
:1003C00072010E94A1061F920F920FB60F92112484
:1003D0002F933F934F935F936F937F938F939F934D
:1003E000AF93BF93EF93FF9380ED91E00E94D6000F
:1003F000FF91EF91BF91AF919F918F917F916F91FD
:100400005F914F913F912F910F900FBE0F901F90D2
:1004100018951F920F920FB60F9211242F938F935E
:100420009F93EF93FF93E091E001F091E1018081D0
:10043000E091E601F091E70182FD12C09081809188
:10044000E9018F5F8F732091EA01821751F0E091EB
:10045000E901F0E0E053FE4F958F8093E90101C080
:100460008081FF91EF919F918F912F910F900FBEFF
:100470000F901F9018951F920F920FB60F92112494
:100480002F933F938F939F93AF93BF938091CC0112
:100490009091CD01A091CE01B091CF013091CB01CF
:1004A00023E0230F2D3720F40196A11DB11D05C0B7
:1004B00026E8230F0296A11DB11D2093CB01809346
:1004C000CC019093CD01A093CE01B093CF01809148
:1004D000C7019091C801A091C901B091CA010196CC
:1004E000A11DB11D8093C7019093C801A093C901BC
:1004F000B093CA01BF91AF919F918F913F912F917E
:100500000F900FBE0F901F9018951F920F920FB66D
:100510000F9211242F933F934F935F936F937F9389
:100520008F939F93AF93BF93EF93FF9360915F017E
:100530007091600180E090E00E94D60420E030E0FD
:100540004AE753E40E94860520E030E04AEF53E496
:100550000E94F3050E94650661307105C1F084F4C4
:10056000672B09F047C080915E01880F80935E0180
:1005700080915D018F5F80935D0180E090E014C009
:1005800062307105A1F06330710519F133C08091BB
:100590005E01880F90915D019F5F90935D01816086
:1005A00080935E0181E090E00E94B30125C08091BC
:1005B0005D01811105C087E291E00E9460011CC0CD
:1005C0008CE291E00E94600180915E010E945F00D8
:1005D00013C080915D01811105C081E391E00E940B
:1005E000600108C087E391E00E94600180915E0194
:1005F0000E945F0010925D018CE391E00E94600117
:1006000060915F017091600180E090E04AE00E949B
:10061000720184E291E00E946001109260011092E8
:100620005F01FF91EF91BF91AF919F918F917F916A
:100630006F915F914F913F912F910F900FBE0F904F
:100640001F9018951F920F920FB60F9211242F939F
:100650003F934F935F936F937F938F939F93AF934A
:10066000BF93EF93FF9380915F019091600180337E
:1006700025E7920728F401969093600180935F012B
:10068000809161019091620120915B0130915C0148
:1006900082179307B8F5892BA9F110925C0110928B
:1006A0005B019091B00080E289278093B000809137
:1006B0005A01E82FF0E0ED59FE4F9081992379F02F
:1006C00044EF51E0949F9001959F300D1124309399
:1006D0006201209361018F5F80935A0113C01092D1
:1006E00062011092610110925A018091B0008F7DD9
:1006F0008093B00086E491E00E94600184E291E082
:100700000E94600180915B0190915C010196909341
:100710005C0180935B01FF91EF91BF91AF919F913D
:100720008F917F916F915F914F913F912F910F909A
:100730000FBE0F901F901895E0EDF1E0138212822A
:1007400088EE93E0A0E0B0E084839583A683B7832E
:1007500084E091E09183808385EC90E095878487A5
:1007600084EC90E09787868780EC90E0918B808B7B
:1007700081EC90E0938B828B82EC90E0958B848B64
:1007800086EC90E0978B868B118E128E138E148ED2
:10079000EDE6F2E016821782108611861286138625
:1007A0001486158616861786108A118A128A138A6D
:1007B000148A158A0895CF93DF9300D000D000D01B
:1007C000CDB7DEB7E091E001F091E10182E08083F6
:1007D000E091DC01F091DD011082E091DE01F09109
:1007E000DF018FEC80831092E801E091E401F09149
:1007F000E50196E09083E091E201F091E3018081D0
:1008000080618083E091E201F091E3018081886062
:100810008083E091E201F091E30180818068808330
:10082000E091E201F091E30180818F7D80838091EE
:10083000B00083628093B0008091B1008A608093A1
:10084000B1008AE38093B3008093B400539A81E0AF
:10085000809370008091B0008F7D8093B000809174
:10086000680084608093680080916D00806180934F
:100870006D007894FE013196DF011D929A95E9F79B
:1008800088E6898381E68A838CE68B838C838FE676
:100890008D8384E08093630185E08093640182E02E
:1008A00090E0EE24E39432E0D32E88248394912CBC
:1008B00054E0F52E63E0C62E75E0B72E9F01290F98
:1008C000311DD9014C91442309F442C067E070E026
:1008D00027E0A22EA80E50E02A2D261B30E08A0128
:1008E000062E02C0159507950A94E2F72D593E4F42
:1008F000D90100FF02C0DC9201C0EC926150710985
:1009000058F728E0280F60E070E0A12C8401062E43
:1009100002C0000F111F0A94E2F704231523012BD4
:1009200009F0A3946F5F7F4F6830710579F730E06D
:10093000A0FC37C02D593E4FD901CC9229E0280F99
:1009400030E02D593E4FD901BC92865F9F5FB6CFF4
:10095000E82FF0E0ED59FE4F83E0808310E0E12FB7
:10096000F0E0ED59FE4F6081662361F070E080E0B9
:1009700090E04AE00E94720182E191E00E946001F1
:100980001F5FEDCF84E191E00E94600184E291E07D
:100990000E94600181E090E0909362018093610188
:1009A000FFCF2D593E4FD901FC92C8CFE89409C022
:1009B00097FB3EF490958095709561957F4F8F4F92
:1009C0009F4F9923A9F0F92F96E9BB279395F695A8
:1009D000879577956795B795F111F8CFFAF4BB0F26
:1009E00011F460FF1BC06F5F7F4F8F4F9F4F16C08A
:1009F000882311F096E911C0772321F09EE8872F14
:100A0000762F05C0662371F096E8862F70E060E0CF
:100A10002AF09A95660F771F881FDAF7880F969548
:100A2000879597F9089597F99F6780E870E060E0EF
:100A300008959FEF80EC089500240A941616170677
:100A400018060906089500240A94121613061406BF
:100A500005060895092E0394000C11F4882352F022
:100A6000BB0F40F4BF2B11F460FF04C06F5F7F4FDA
:100A70008F4F9F4F089557FD9058440F551F59F0C1
:100A80005F3F71F04795880F97FB991F61F09F3F7B
:100A900079F087950895121613061406551FF2CFA4
:100AA0004695F1DF08C0161617061806991FF1CFF4
:100AB00086957105610508940895E894BB2766271B
:100AC0007727CB0197F90895A1E21A2EAA1BBB1B29
:100AD000FD010DC0AA1FBB1FEE1FFF1FA217B3070A
:100AE000E407F50720F0A21BB30BE40BF50B661F20
:100AF000771F881F991F1A9469F7609570958095E4
:100B000090959B01AC01BD01CF0108955058BB27C2
:100B1000AA270E949E050C942A050E941C0538F005
:100B20000E94230520F039F49F3F19F426F40C9419
:100B300019050EF4E095E7FB0C941305E92F0E94CC
:100B40003B0558F3BA17620773078407950720F02F
:100B500079F4A6F50C945D050EF4E0950B2EBA2FF2
:100B6000A02D0B01B90190010C01CA01A0011124B3
:100B7000FF27591B99F0593F50F4503E68F11A165F
:100B8000F040A22F232F342F4427585FF3CF4695F0
:100B900037952795A795F0405395C9F77EF41F1612
:100BA000BA0B620B730B840BBAF09150A1F0FF0FDC
:100BB000BB1F661F771F881FC2F70EC0BA0F621FC8
:100BC000731F841F48F4879577956795B795F795B8
:100BD0009E3F08F0B0CF9395880F08F09927EE0F4D
:100BE0009795879508950E9407060C942A050E9400
:100BF000230558F00E941C0540F029F45F3F29F0BE
:100C00000C94130551110C945E050C9419050E9467
:100C10003B0568F39923B1F3552391F3951B550BCD
:100C2000BB27AA2762177307840738F09F5F5F4FBF
:100C3000220F331F441FAA1FA9F335D00E2E3AF0FE
:100C4000E0E832D091505040E695001CCAF72BD016
:100C5000FE2F29D0660F771F881FBB1F2617370767
:100C60004807AB07B0E809F0BB0B802DBF01FF2799
:100C700093585F4F3AF09E3F510578F00C9413055E
:100C80000C945E055F3FE4F3983ED4F38695779528
:100C90006795B795F7959F5FC9F7880F911D969552
:100CA000879597F90895E1E0660F771F881FBB1FAE
:100CB000621773078407BA0720F0621B730B840B5B
:100CC000BA0BEE1F88F7E09508950E946C066894B1
:100CD000B1110C945E0508950E94430588F09F575A
:100CE00098F0B92F9927B751B0F0E1F0660F771F50
:100CF000881F991F1AF0BA95C9F714C0B13091F046
:100D00000E945D05B1E008950C945D05672F782F72
:100D10008827B85F39F0B93FCCF38695779567950A
:100D2000B395D9F73EF490958095709561957F4F76
:100D30008F4F9F4F0895EE0FFF1F0590F491E02D08
:100D4000099481E090E0F8940C94A606F894FFCF03
:100D500000000000F7006A0099003E01CA00A800E8
:100D6000BC002D004152524159204F462050554C55
:100D7000534553000D0A0053746F7000503A3020F1
:100D800000537461727400503A3120002009546994
:100D90006D65723A20005472616E736D6973736988
:0A0DA0006F6E20656E64656421002B
:00000001FF
